{
  "_format": "hh-sol-artifact-1",
  "contractName": "Marketplace",
  "sourceName": "contracts/Marketplace.sol",
  "abi": [
    {
      "inputs": [
        {
          "internalType": "uint256",
          "name": "_MINIMUM_BUDGET",
          "type": "uint256"
        },
        {
          "internalType": "uint256",
          "name": "_client_stake_per",
          "type": "uint256"
        },
        {
          "internalType": "uint256",
          "name": "_freelancer_stake_per",
          "type": "uint256"
        },
        {
          "internalType": "uint256",
          "name": "_platform_fee_per",
          "type": "uint256"
        },
        {
          "internalType": "uint256",
          "name": "_penalty_per",
          "type": "uint256"
        }
      ],
      "stateMutability": "nonpayable",
      "type": "constructor"
    },
    {
      "inputs": [
        {
          "internalType": "address",
          "name": "owner",
          "type": "address"
        }
      ],
      "name": "OwnableInvalidOwner",
      "type": "error"
    },
    {
      "inputs": [
        {
          "internalType": "address",
          "name": "account",
          "type": "address"
        }
      ],
      "name": "OwnableUnauthorizedAccount",
      "type": "error"
    },
    {
      "inputs": [],
      "name": "ReentrancyGuardReentrantCall",
      "type": "error"
    },
    {
      "anonymous": false,
      "inputs": [
        {
          "indexed": false,
          "internalType": "uint256",
          "name": "jobId",
          "type": "uint256"
        },
        {
          "indexed": true,
          "internalType": "address",
          "name": "freelancer",
          "type": "address"
        },
        {
          "indexed": false,
          "internalType": "uint256",
          "name": "amount",
          "type": "uint256"
        }
      ],
      "name": "AmountPaidOnCompletion",
      "type": "event"
    },
    {
      "anonymous": false,
      "inputs": [
        {
          "indexed": true,
          "internalType": "uint256",
          "name": "jobId",
          "type": "uint256"
        },
        {
          "indexed": true,
          "internalType": "address",
          "name": "freelancer",
          "type": "address"
        }
      ],
      "name": "AppliedForJob",
      "type": "event"
    },
    {
      "anonymous": false,
      "inputs": [
        {
          "indexed": true,
          "internalType": "uint256",
          "name": "jobId",
          "type": "uint256"
        },
        {
          "indexed": false,
          "internalType": "string",
          "name": "public_review",
          "type": "string"
        },
        {
          "indexed": false,
          "internalType": "uint8",
          "name": "rating",
          "type": "uint8"
        }
      ],
      "name": "FreelancerReviewed",
      "type": "event"
    },
    {
      "anonymous": false,
      "inputs": [
        {
          "indexed": false,
          "internalType": "address",
          "name": "owner",
          "type": "address"
        },
        {
          "indexed": false,
          "internalType": "uint256",
          "name": "amount",
          "type": "uint256"
        }
      ],
      "name": "FundsWithdrawnByOwner",
      "type": "event"
    },
    {
      "anonymous": false,
      "inputs": [
        {
          "indexed": false,
          "internalType": "uint256",
          "name": "jobId",
          "type": "uint256"
        },
        {
          "indexed": true,
          "internalType": "address",
          "name": "freelancer",
          "type": "address"
        }
      ],
      "name": "JobAccepted",
      "type": "event"
    },
    {
      "anonymous": false,
      "inputs": [
        {
          "indexed": false,
          "internalType": "uint256",
          "name": "jobId",
          "type": "uint256"
        },
        {
          "indexed": true,
          "internalType": "address",
          "name": "freelancer",
          "type": "address"
        }
      ],
      "name": "JobAssigned",
      "type": "event"
    },
    {
      "anonymous": false,
      "inputs": [
        {
          "indexed": false,
          "internalType": "uint256",
          "name": "jobId",
          "type": "uint256"
        },
        {
          "indexed": true,
          "internalType": "address",
          "name": "freelancer",
          "type": "address"
        }
      ],
      "name": "JobCompleted",
      "type": "event"
    },
    {
      "anonymous": false,
      "inputs": [
        {
          "indexed": false,
          "internalType": "uint256",
          "name": "jobId",
          "type": "uint256"
        },
        {
          "indexed": true,
          "internalType": "address",
          "name": "client",
          "type": "address"
        },
        {
          "indexed": false,
          "internalType": "string",
          "name": "description",
          "type": "string"
        },
        {
          "indexed": false,
          "internalType": "uint256",
          "name": "budget",
          "type": "uint256"
        },
        {
          "indexed": false,
          "internalType": "uint256",
          "name": "createdAt",
          "type": "uint256"
        },
        {
          "indexed": false,
          "internalType": "uint256",
          "name": "deadline",
          "type": "uint256"
        }
      ],
      "name": "JobCreated",
      "type": "event"
    },
    {
      "anonymous": false,
      "inputs": [
        {
          "indexed": false,
          "internalType": "uint256",
          "name": "jobId",
          "type": "uint256"
        },
        {
          "indexed": true,
          "internalType": "address",
          "name": "client",
          "type": "address"
        }
      ],
      "name": "JobDeleted",
      "type": "event"
    },
    {
      "anonymous": false,
      "inputs": [
        {
          "indexed": false,
          "internalType": "uint256",
          "name": "jobId",
          "type": "uint256"
        }
      ],
      "name": "JobNotCompleted",
      "type": "event"
    },
    {
      "anonymous": false,
      "inputs": [
        {
          "indexed": false,
          "internalType": "uint256",
          "name": "jobId",
          "type": "uint256"
        },
        {
          "indexed": true,
          "internalType": "address",
          "name": "client",
          "type": "address"
        }
      ],
      "name": "JobRevoked",
      "type": "event"
    },
    {
      "anonymous": false,
      "inputs": [
        {
          "indexed": true,
          "internalType": "address",
          "name": "previousOwner",
          "type": "address"
        },
        {
          "indexed": true,
          "internalType": "address",
          "name": "newOwner",
          "type": "address"
        }
      ],
      "name": "OwnershipTransferred",
      "type": "event"
    },
    {
      "anonymous": false,
      "inputs": [
        {
          "indexed": true,
          "internalType": "uint256",
          "name": "jobId",
          "type": "uint256"
        },
        {
          "indexed": false,
          "internalType": "string",
          "name": "submissionHash",
          "type": "string"
        },
        {
          "indexed": true,
          "internalType": "address",
          "name": "freelancer",
          "type": "address"
        }
      ],
      "name": "SubmissionSubmitted",
      "type": "event"
    },
    {
      "inputs": [],
      "name": "MINIMUM_BUDGET",
      "outputs": [
        {
          "internalType": "uint256",
          "name": "",
          "type": "uint256"
        }
      ],
      "stateMutability": "view",
      "type": "function"
    },
    {
      "inputs": [
        {
          "internalType": "uint256",
          "name": "jobId",
          "type": "uint256"
        }
      ],
      "name": "acceptJob",
      "outputs": [],
      "stateMutability": "payable",
      "type": "function"
    },
    {
      "inputs": [
        {
          "internalType": "uint256",
          "name": "jobId",
          "type": "uint256"
        }
      ],
      "name": "applyForJob",
      "outputs": [],
      "stateMutability": "nonpayable",
      "type": "function"
    },
    {
      "inputs": [
        {
          "internalType": "uint256",
          "name": "jobId",
          "type": "uint256"
        },
        {
          "internalType": "address",
          "name": "freelancer",
          "type": "address"
        }
      ],
      "name": "assignJob",
      "outputs": [],
      "stateMutability": "nonpayable",
      "type": "function"
    },
    {
      "inputs": [
        {
          "internalType": "uint256",
          "name": "jobId",
          "type": "uint256"
        }
      ],
      "name": "cancelJob",
      "outputs": [],
      "stateMutability": "nonpayable",
      "type": "function"
    },
    {
      "inputs": [],
      "name": "cancelJobPenaltyPer",
      "outputs": [
        {
          "internalType": "uint256",
          "name": "",
          "type": "uint256"
        }
      ],
      "stateMutability": "view",
      "type": "function"
    },
    {
      "inputs": [
        {
          "internalType": "address",
          "name": "newOwner",
          "type": "address"
        }
      ],
      "name": "changeOwner",
      "outputs": [],
      "stateMutability": "nonpayable",
      "type": "function"
    },
    {
      "inputs": [
        {
          "internalType": "uint256",
          "name": "jobId",
          "type": "uint256"
        }
      ],
      "name": "checkDeadlinePassed",
      "outputs": [
        {
          "internalType": "bool",
          "name": "",
          "type": "bool"
        }
      ],
      "stateMutability": "view",
      "type": "function"
    },
    {
      "inputs": [],
      "name": "client_stake_per",
      "outputs": [
        {
          "internalType": "uint256",
          "name": "",
          "type": "uint256"
        }
      ],
      "stateMutability": "view",
      "type": "function"
    },
    {
      "inputs": [
        {
          "internalType": "uint256",
          "name": "jobId",
          "type": "uint256"
        },
        {
          "internalType": "string",
          "name": "_reply_on_completion",
          "type": "string"
        }
      ],
      "name": "completeJob",
      "outputs": [],
      "stateMutability": "nonpayable",
      "type": "function"
    },
    {
      "inputs": [
        {
          "internalType": "string",
          "name": "_title",
          "type": "string"
        },
        {
          "internalType": "uint256",
          "name": "_duration",
          "type": "uint256"
        },
        {
          "internalType": "string",
          "name": "_description",
          "type": "string"
        }
      ],
      "name": "createJob",
      "outputs": [
        {
          "internalType": "uint256",
          "name": "",
          "type": "uint256"
        }
      ],
      "stateMutability": "payable",
      "type": "function"
    },
    {
      "inputs": [
        {
          "internalType": "uint256",
          "name": "jobId",
          "type": "uint256"
        }
      ],
      "name": "deadlinePassed",
      "outputs": [],
      "stateMutability": "nonpayable",
      "type": "function"
    },
    {
      "inputs": [
        {
          "internalType": "uint256",
          "name": "jobId",
          "type": "uint256"
        },
        {
          "internalType": "string",
          "name": "_submissionHash",
          "type": "string"
        }
      ],
      "name": "editSubmission",
      "outputs": [],
      "stateMutability": "nonpayable",
      "type": "function"
    },
    {
      "inputs": [],
      "name": "freelancer_stake_per",
      "outputs": [
        {
          "internalType": "uint256",
          "name": "",
          "type": "uint256"
        }
      ],
      "stateMutability": "view",
      "type": "function"
    },
    {
      "inputs": [],
      "name": "getAllJobs",
      "outputs": [
        {
          "components": [
            {
              "internalType": "address",
              "name": "client",
              "type": "address"
            },
            {
              "internalType": "address",
              "name": "freelancer",
              "type": "address"
            },
            {
              "internalType": "string",
              "name": "title",
              "type": "string"
            },
            {
              "internalType": "string",
              "name": "description",
              "type": "string"
            },
            {
              "internalType": "string",
              "name": "on_completion",
              "type": "string"
            },
            {
              "internalType": "uint256",
              "name": "budget",
              "type": "uint256"
            },
            {
              "internalType": "uint256",
              "name": "client_stake",
              "type": "uint256"
            },
            {
              "internalType": "uint256",
              "name": "freelancer_stake",
              "type": "uint256"
            },
            {
              "internalType": "uint256",
              "name": "platform_fee",
              "type": "uint256"
            },
            {
              "internalType": "uint256",
              "name": "createdAt",
              "type": "uint256"
            },
            {
              "internalType": "uint256",
              "name": "deadline",
              "type": "uint256"
            },
            {
              "internalType": "enum Marketplace.JobStatus",
              "name": "status",
              "type": "uint8"
            },
            {
              "internalType": "bool",
              "name": "exists",
              "type": "bool"
            },
            {
              "internalType": "string",
              "name": "submissionHash",
              "type": "string"
            },
            {
              "internalType": "string",
              "name": "public_review",
              "type": "string"
            },
            {
              "internalType": "uint8",
              "name": "rating",
              "type": "uint8"
            },
            {
              "internalType": "bool",
              "name": "isPaid",
              "type": "bool"
            },
            {
              "internalType": "bool",
              "name": "reviewed",
              "type": "bool"
            }
          ],
          "internalType": "struct Marketplace.Job[]",
          "name": "",
          "type": "tuple[]"
        }
      ],
      "stateMutability": "view",
      "type": "function"
    },
    {
      "inputs": [
        {
          "internalType": "address",
          "name": "client",
          "type": "address"
        }
      ],
      "name": "getClientJobs",
      "outputs": [
        {
          "internalType": "uint256[]",
          "name": "",
          "type": "uint256[]"
        }
      ],
      "stateMutability": "view",
      "type": "function"
    },
    {
      "inputs": [],
      "name": "getClientStakePercentage",
      "outputs": [
        {
          "internalType": "uint256",
          "name": "",
          "type": "uint256"
        }
      ],
      "stateMutability": "view",
      "type": "function"
    },
    {
      "inputs": [],
      "name": "getClientsAllPostings",
      "outputs": [
        {
          "internalType": "uint256[]",
          "name": "",
          "type": "uint256[]"
        }
      ],
      "stateMutability": "view",
      "type": "function"
    },
    {
      "inputs": [
        {
          "internalType": "address",
          "name": "freelancer",
          "type": "address"
        }
      ],
      "name": "getFreelancerJobs",
      "outputs": [
        {
          "internalType": "uint256[]",
          "name": "",
          "type": "uint256[]"
        }
      ],
      "stateMutability": "view",
      "type": "function"
    },
    {
      "inputs": [],
      "name": "getFreelancerStakePercentage",
      "outputs": [
        {
          "internalType": "uint256",
          "name": "",
          "type": "uint256"
        }
      ],
      "stateMutability": "view",
      "type": "function"
    },
    {
      "inputs": [
        {
          "internalType": "uint256",
          "name": "jobId",
          "type": "uint256"
        }
      ],
      "name": "getJobApplications",
      "outputs": [
        {
          "internalType": "address[]",
          "name": "",
          "type": "address[]"
        }
      ],
      "stateMutability": "view",
      "type": "function"
    },
    {
      "inputs": [
        {
          "internalType": "uint256",
          "name": "jobId",
          "type": "uint256"
        }
      ],
      "name": "getJobById",
      "outputs": [
        {
          "components": [
            {
              "internalType": "address",
              "name": "client",
              "type": "address"
            },
            {
              "internalType": "address",
              "name": "freelancer",
              "type": "address"
            },
            {
              "internalType": "string",
              "name": "title",
              "type": "string"
            },
            {
              "internalType": "string",
              "name": "description",
              "type": "string"
            },
            {
              "internalType": "string",
              "name": "on_completion",
              "type": "string"
            },
            {
              "internalType": "uint256",
              "name": "budget",
              "type": "uint256"
            },
            {
              "internalType": "uint256",
              "name": "client_stake",
              "type": "uint256"
            },
            {
              "internalType": "uint256",
              "name": "freelancer_stake",
              "type": "uint256"
            },
            {
              "internalType": "uint256",
              "name": "platform_fee",
              "type": "uint256"
            },
            {
              "internalType": "uint256",
              "name": "createdAt",
              "type": "uint256"
            },
            {
              "internalType": "uint256",
              "name": "deadline",
              "type": "uint256"
            },
            {
              "internalType": "enum Marketplace.JobStatus",
              "name": "status",
              "type": "uint8"
            },
            {
              "internalType": "bool",
              "name": "exists",
              "type": "bool"
            },
            {
              "internalType": "string",
              "name": "submissionHash",
              "type": "string"
            },
            {
              "internalType": "string",
              "name": "public_review",
              "type": "string"
            },
            {
              "internalType": "uint8",
              "name": "rating",
              "type": "uint8"
            },
            {
              "internalType": "bool",
              "name": "isPaid",
              "type": "bool"
            },
            {
              "internalType": "bool",
              "name": "reviewed",
              "type": "bool"
            }
          ],
          "internalType": "struct Marketplace.Job",
          "name": "",
          "type": "tuple"
        }
      ],
      "stateMutability": "view",
      "type": "function"
    },
    {
      "inputs": [],
      "name": "getMinimumBudget",
      "outputs": [
        {
          "internalType": "uint256",
          "name": "",
          "type": "uint256"
        }
      ],
      "stateMutability": "view",
      "type": "function"
    },
    {
      "inputs": [],
      "name": "getPlatformFeePercentage",
      "outputs": [
        {
          "internalType": "uint256",
          "name": "",
          "type": "uint256"
        }
      ],
      "stateMutability": "view",
      "type": "function"
    },
    {
      "inputs": [
        {
          "internalType": "uint256",
          "name": "jobId",
          "type": "uint256"
        }
      ],
      "name": "getSubmissionHash",
      "outputs": [
        {
          "internalType": "string",
          "name": "",
          "type": "string"
        }
      ],
      "stateMutability": "view",
      "type": "function"
    },
    {
      "inputs": [],
      "name": "getTotalPlatformFees",
      "outputs": [
        {
          "internalType": "uint256",
          "name": "",
          "type": "uint256"
        }
      ],
      "stateMutability": "view",
      "type": "function"
    },
    {
      "inputs": [
        {
          "internalType": "uint256",
          "name": "",
          "type": "uint256"
        },
        {
          "internalType": "address",
          "name": "",
          "type": "address"
        }
      ],
      "name": "hasApplied",
      "outputs": [
        {
          "internalType": "bool",
          "name": "",
          "type": "bool"
        }
      ],
      "stateMutability": "view",
      "type": "function"
    },
    {
      "inputs": [
        {
          "internalType": "uint256",
          "name": "jobId",
          "type": "uint256"
        },
        {
          "internalType": "address",
          "name": "freelancer",
          "type": "address"
        }
      ],
      "name": "hasFreelancerApplied",
      "outputs": [
        {
          "internalType": "bool",
          "name": "",
          "type": "bool"
        }
      ],
      "stateMutability": "view",
      "type": "function"
    },
    {
      "inputs": [],
      "name": "jobCounter",
      "outputs": [
        {
          "internalType": "uint256",
          "name": "",
          "type": "uint256"
        }
      ],
      "stateMutability": "view",
      "type": "function"
    },
    {
      "inputs": [],
      "name": "owner",
      "outputs": [
        {
          "internalType": "address",
          "name": "",
          "type": "address"
        }
      ],
      "stateMutability": "view",
      "type": "function"
    },
    {
      "inputs": [
        {
          "internalType": "uint256",
          "name": "jobId",
          "type": "uint256"
        }
      ],
      "name": "payOnCompletion",
      "outputs": [],
      "stateMutability": "nonpayable",
      "type": "function"
    },
    {
      "inputs": [],
      "name": "platform_fee_per",
      "outputs": [
        {
          "internalType": "uint256",
          "name": "",
          "type": "uint256"
        }
      ],
      "stateMutability": "view",
      "type": "function"
    },
    {
      "inputs": [],
      "name": "renounceOwnership",
      "outputs": [],
      "stateMutability": "nonpayable",
      "type": "function"
    },
    {
      "inputs": [
        {
          "internalType": "uint256",
          "name": "jobId",
          "type": "uint256"
        },
        {
          "internalType": "string",
          "name": "_public_review",
          "type": "string"
        },
        {
          "internalType": "uint8",
          "name": "_rating",
          "type": "uint8"
        }
      ],
      "name": "reviewFreelancer",
      "outputs": [],
      "stateMutability": "nonpayable",
      "type": "function"
    },
    {
      "inputs": [
        {
          "internalType": "uint256",
          "name": "jobId",
          "type": "uint256"
        }
      ],
      "name": "revokeJobAssigned",
      "outputs": [],
      "stateMutability": "nonpayable",
      "type": "function"
    },
    {
      "inputs": [
        {
          "internalType": "uint256",
          "name": "_penalty_per",
          "type": "uint256"
        }
      ],
      "name": "setCancelJobPenaltyPercentage",
      "outputs": [],
      "stateMutability": "nonpayable",
      "type": "function"
    },
    {
      "inputs": [
        {
          "internalType": "uint256",
          "name": "_client_stake_per",
          "type": "uint256"
        }
      ],
      "name": "setClientStakePercentage",
      "outputs": [],
      "stateMutability": "nonpayable",
      "type": "function"
    },
    {
      "inputs": [
        {
          "internalType": "uint256",
          "name": "_freelancer_stake_per",
          "type": "uint256"
        }
      ],
      "name": "setFreelancerStakePercentage",
      "outputs": [],
      "stateMutability": "nonpayable",
      "type": "function"
    },
    {
      "inputs": [
        {
          "internalType": "uint256",
          "name": "_minimum_budget",
          "type": "uint256"
        }
      ],
      "name": "setMinimumBudget",
      "outputs": [],
      "stateMutability": "nonpayable",
      "type": "function"
    },
    {
      "inputs": [
        {
          "internalType": "uint256",
          "name": "_platform_fee_per",
          "type": "uint256"
        }
      ],
      "name": "setPlatformFeePercentage",
      "outputs": [],
      "stateMutability": "nonpayable",
      "type": "function"
    },
    {
      "inputs": [
        {
          "internalType": "uint256",
          "name": "jobId",
          "type": "uint256"
        },
        {
          "internalType": "string",
          "name": "_submissionHash",
          "type": "string"
        }
      ],
      "name": "submitSubmission",
      "outputs": [],
      "stateMutability": "nonpayable",
      "type": "function"
    },
    {
      "inputs": [],
      "name": "totalPlatformFees",
      "outputs": [
        {
          "internalType": "uint256",
          "name": "",
          "type": "uint256"
        }
      ],
      "stateMutability": "view",
      "type": "function"
    },
    {
      "inputs": [
        {
          "internalType": "address",
          "name": "newOwner",
          "type": "address"
        }
      ],
      "name": "transferOwnership",
      "outputs": [],
      "stateMutability": "nonpayable",
      "type": "function"
    },
    {
      "inputs": [],
      "name": "withdrawPlatformFees",
      "outputs": [],
      "stateMutability": "nonpayable",
      "type": "function"
    }
  ],
  "bytecode": "0x60806040526000600d5534801561001557600080fd5b50604051613caf380380613caf833981016040819052610034916100d2565b338061005a57604051631e4fbdf760e01b81526000600482015260240160405180910390fd5b61006381610082565b5060018055600293909355600391909155600455600755600555610112565b600080546001600160a01b038381166001600160a01b0319831681178455604051919092169283917f8be0079c531659141344cd1fd0a4f28419497f9722a3daafe3b4186f6b6457e09190a35050565b600080600080600060a086880312156100ea57600080fd5b5050835160208501516040860151606087015160809097015192989197509594509092509050565b613b8e806101216000396000f3fe6080604052600436106102275760003560e01c80637573b7e811610124578063cf2646c2116100a6578063cf2646c21461061e578063d0b7830b1461063e578063d190508f14610653578063d3631fa514610673578063dc32244614610689578063dc65249f146106b6578063e0c94ae5146106d6578063e5a6da81146106f6578063f2fde38b1461070c578063f3a4735a1461072c578063fc03ac831461074c57600080fd5b80637573b7e8146104b55780637a3a27ea146104d55780637d3d7379146104ea5780638333903e1461050a5780638da5cb5b1461052a578063965a79fb1461054c57806397b1ede01461056e578063a39bf5441461058e578063a53cc8c7146105c9578063a6f9dae1146105e9578063b3f2fd421461060957600080fd5b806350355d76116101ad57806350355d761461039157806350907ef0146103a7578063585a0699146103bc5780635dc9b03f146103d25780635eeafff1146103e75780635ff837e5146103fd57806361d280d41461041d57806363b2f3c91461043357806369d7428f14610446578063715018a614610473578063747143b91461048857600080fd5b8063010bf3f11461022c5780630361f7df1461024e57806305f295a51461028357806315a840e4146102a357806319eb5ae4146102c35780631dffa3dc146102e4578063273791381461030457806331521d5714610319578063360f67d71461032e57806337a744971461034e57806340f70be414610364575b600080fd5b34801561023857600080fd5b5061024c6102473660046132a9565b61076c565b005b34801561025a57600080fd5b5061026e6102693660046132de565b610779565b60405190151581526020015b60405180910390f35b34801561028f57600080fd5b5061024c61029e3660046133ad565b6107f5565b3480156102af57600080fd5b5061024c6102be3660046132a9565b610a2a565b6102d66102d136600461340d565b610c26565b60405190815260200161027a565b3480156102f057600080fd5b5061024c6102ff3660046132a9565b611088565b34801561031057600080fd5b506002546102d6565b34801561032557600080fd5b506006546102d6565b34801561033a57600080fd5b5061024c6103493660046132a9565b6112ff565b34801561035a57600080fd5b506102d660055481565b34801561037057600080fd5b5061038461037f36600461347d565b61130c565b60405161027a919061349f565b34801561039d57600080fd5b506102d6600d5481565b3480156103b357600080fd5b506003546102d6565b3480156103c857600080fd5b506102d660075481565b3480156103de57600080fd5b50610384611378565b3480156103f357600080fd5b506102d660025481565b34801561040957600080fd5b5061026e6104183660046132a9565b6113d9565b34801561042957600080fd5b506102d660045481565b61024c6104413660046132a9565b61143c565b34801561045257600080fd5b506104666104613660046132a9565b6115dc565b60405161027a91906136ca565b34801561047f57600080fd5b5061024c6119fb565b34801561049457600080fd5b506104a86104a33660046132a9565b611a0f565b60405161027a91906136dd565b3480156104c157600080fd5b5061024c6104d03660046132a9565b611ac0565b3480156104e157600080fd5b506004546102d6565b3480156104f657600080fd5b5061024c61050536600461371e565b611b33565b34801561051657600080fd5b5061024c6105253660046132a9565b611c5c565b34801561053657600080fd5b5061053f611c69565b60405161027a9190613764565b34801561055857600080fd5b50610561611c78565b60405161027a9190613778565b34801561057a57600080fd5b5061024c61058936600461371e565b6120d2565b34801561059a57600080fd5b5061026e6105a93660046132de565b600b60209081526000928352604080842090915290825290205460ff1681565b3480156105d557600080fd5b5061024c6105e43660046132a9565b612203565b3480156105f557600080fd5b5061024c61060436600461347d565b6125d0565b34801561061557600080fd5b506005546102d6565b34801561062a57600080fd5b5061038461063936600461347d565b6126ce565b34801561064a57600080fd5b5061024c612738565b34801561065f57600080fd5b5061024c61066e36600461371e565b612893565b34801561067f57600080fd5b506102d660065481565b34801561069557600080fd5b506106a96106a43660046132a9565b6129bf565b60405161027a91906137dd565b3480156106c257600080fd5b5061024c6106d13660046132a9565b612a5d565b3480156106e257600080fd5b5061024c6106f13660046132a9565b612ad3565b34801561070257600080fd5b506102d660035481565b34801561071857600080fd5b5061024c61072736600461347d565b612cfb565b34801561073857600080fd5b5061024c6107473660046132de565b612d39565b34801561075857600080fd5b5061024c6107673660046132a9565b612eb4565b610774613143565b600255565b600082600d54811080156107a357506000818152600c60205260409020600b0154610100900460ff165b6107c85760405162461bcd60e51b81526004016107bf906137f0565b60405180910390fd5b50506000918252600b602090815260408084206001600160a01b0393909316845291905290205460ff1690565b82600d548110801561081d57506000818152600c60205260409020600b0154610100900460ff165b6108395760405162461bcd60e51b81526004016107bf906137f0565b6000848152600c602052604090205484906001600160a01b031633146108715760405162461bcd60e51b81526004016107bf9061381c565b60056000868152600c60205260409020600b015460ff16600781111561089957610899613528565b146108dc5760405162461bcd60e51b8152602060048201526013602482015272129bd8881a5cc81b9bdd081c185a59081e595d606a1b60448201526064016107bf565b6000858152600c60205260409020600e015462010000900460ff16156109425760405162461bcd60e51b815260206004820152601b60248201527a119c99595b185b98d95c88185b1c9958591e481c995d9a595dd959602a1b60448201526064016107bf565b60018360ff161015801561095a575060058360ff1611155b6109a65760405162461bcd60e51b815260206004820152601e60248201527f526174696e67206d757374206265206265747765656e203120616e642035000060448201526064016107bf565b6000858152600c60205260409020600d016109c185826138e6565b506000858152600c602052604090819020600e01805462ff00ff191660ff861617620100001790555185907fbd50b93283427c9f1d5a17d446cc53edc5ebd5ee86fff386f64f9e9ea53adf8790610a1b90879087906139a4565b60405180910390a25050505050565b80600d5481108015610a5257506000818152600c60205260409020600b0154610100900460ff165b610a6e5760405162461bcd60e51b81526004016107bf906137f0565b6000828152600c602052604090205482906001600160a01b03163314610aa65760405162461bcd60e51b81526004016107bf9061381c565b60016000848152600c60205260409020600b015460ff166007811115610ace57610ace613528565b14610aeb5760405162461bcd60e51b81526004016107bf906139c9565b6000838152600c6020526040808220600181015460079091015491516001600160a01b0390911691908381818185875af1925050503d8060008114610b4c576040519150601f19603f3d011682016040523d82523d6000602084013e610b51565b606091505b5050905080610bbe5760405162461bcd60e51b815260206004820152603360248201527f4661696c656420746f2073656e6420667265656c616e636572207374616b65206044820152721dda195b881a9bd8881a5cc81c995d9bdad959606a1b60648201526084016107bf565b6000848152600c60209081526040918290206001810180546001600160a01b0319169055600b01805460ff19169055905185815233917fa925e76e316a1510d150731f98c591ebc7f002b55649b69e6c4f48c8556c8b1091015b60405180910390a250505050565b6000600554341015610c915760405162461bcd60e51b815260206004820152602e60248201527f4d7573742073656e6420736f6d652067726561746572207468616e204d494e4960448201526d4d554d5f4255444745542077656960901b60648201526084016107bf565b60003490506000606482600254610ca89190613a0c565b610cb29190613a29565b90506000606483600354610cc69190613a0c565b610cd09190613a29565b90506000606484600454610ce49190613a0c565b610cee9190613a29565b9050600081610cfd8587613a4b565b610d079190613a4b565b90506005548111610d5a5760405162461bcd60e51b815260206004820152601d60248201527f46696e616c20627564676574203c206d696e696d756d2062756467657400000060448201526064016107bf565b6000604051806102400160405280336001600160a01b0316815260200160006001600160a01b031681526020018b81526020018981526020016040518060200160405280600081525081526020018381526020018681526020018581526020018481526020014281526020018a62015180610dd59190613a0c565b610ddf9042613a5e565b815260200160008152600160208083018290526040805180830182526000808252828601919091528151808401835281815260608601526080850181905260a0850181905260c0909401849052600d548452600c825292839020845181546001600160a01b03199081166001600160a01b0392831617835592860151938201805490931693169290921790559082015191925082916002820190610e8390826138e6565b5060608201516003820190610e9890826138e6565b5060808201516004820190610ead90826138e6565b5060a0820151816005015560c0820151816006015560e082015181600701556101008201518160080155610120820151816009015561014082015181600a015561016082015181600b0160006101000a81548160ff02191690836007811115610f1857610f18613528565b0217905550610180820151600b820180549115156101000261ff00199092169190911790556101a0820151600c820190610f5290826138e6565b506101c0820151600d820190610f6890826138e6565b506101e0820151600e9091018054610200840151610220909401511515620100000262ff0000199415156101000261ffff1990921660ff9094169390931717929092161790553360009081526008602090815260408220600d548154600181018355918452918320015560068054859290610fe4908490613a5e565b9091555050600d8054906000610ff983613a71565b9190505550336001600160a01b03167fb17af25cc4b22ec0ce498027c7f736477f0935c738194a6cb16f4f637cb79b086001600d546110389190613a4b565b8a89426110488f62015180613a0c565b6110529042613a5e565b604051611063959493929190613a8a565b60405180910390a26001600d5461107a9190613a4b565b9a9950505050505050505050565b80600d54811080156110b057506000818152600c60205260409020600b0154610100900460ff165b6110cc5760405162461bcd60e51b81526004016107bf906137f0565b6000828152600c602052604090205482906001600160a01b031633146111045760405162461bcd60e51b81526004016107bf9061381c565b6000838152600c60205260408120600b015460ff16600781111561112a5761112a613528565b146111775760405162461bcd60e51b815260206004820181905260248201527f4a6f62206973206e6f74206f70656e20666f722063616e63656c6c6174696f6e60448201526064016107bf565b6000838152600c60205260408120600b8101805460ff1916600717905560068101546005909101546111a99190613a5e565b905060006064826007546111bd9190613a0c565b6111c79190613a29565b90506111d38183613a4b565b915080600660008282546111e79190613a5e565b90915550506000858152600c60209081526040808320600b01805461ff0019169055600a9091528120611219916131c5565b6000858152600c60205260408082205490516001600160a01b039091169084908381818185875af1925050503d8060008114611271576040519150601f19603f3d011682016040523d82523d6000602084013e611276565b606091505b50509050806112c15760405162461bcd60e51b815260206004820152601760248201527611985a5b1959081d1bc81c99599d5b990818db1a595b9d604a1b60448201526064016107bf565b60405186815233907f89f27608841804f17b8e014428ff9f1b09d1e415313170c8de783b0de71316ba906020015b60405180910390a2505050505050565b611307613143565b600355565b6001600160a01b03811660009081526009602090815260409182902080548351818402810184019094528084526060939283018282801561136c57602002820191906000526020600020905b815481526020019060010190808311611358575b50505050509050919050565b336000908152600860209081526040918290208054835181840281018401909452808452606093928301828280156113cf57602002820191906000526020600020905b8154815260200190600101908083116113bb575b5050505050905090565b600081600d548110801561140357506000818152600c60205260409020600b0154610100900460ff165b61141f5760405162461bcd60e51b81526004016107bf906137f0565b6000838152600c60205260409020600a0154421191505b50919050565b80600d548110801561146457506000818152600c60205260409020600b0154610100900460ff165b6114805760405162461bcd60e51b81526004016107bf906137f0565b6000828152600c602052604090206001015482906001600160a01b031633146114bb5760405162461bcd60e51b81526004016107bf90613ac0565b6000838152600c6020526040902060070154341461151b5760405162461bcd60e51b815260206004820181905260248201527f4d7573742073656e642072657175697265642045544820666f72207374616b6560448201526064016107bf565b60026000848152600c60205260409020600b015460ff16600781111561154357611543613528565b146115855760405162461bcd60e51b81526020600482015260126024820152714a6f62206973206e6f742070656e64696e6760701b60448201526064016107bf565b6000838152600c6020908152604091829020600b01805460ff19166001179055905184815233917f4426e4a90a9570c8f678a263b11785eaaade8b79d76d18c43d4d8e00062e4f83910160405180910390a2505050565b6115e46131e3565b81600d548110801561160c57506000818152600c60205260409020600b0154610100900460ff165b6116285760405162461bcd60e51b81526004016107bf906137f0565b6000838152600c602090815260409182902082516102408101845281546001600160a01b03908116825260018301541692810192909252600281018054929391929184019161167690613863565b80601f01602080910402602001604051908101604052809291908181526020018280546116a290613863565b80156116ef5780601f106116c4576101008083540402835291602001916116ef565b820191906000526020600020905b8154815290600101906020018083116116d257829003601f168201915b5050505050815260200160038201805461170890613863565b80601f016020809104026020016040519081016040528092919081815260200182805461173490613863565b80156117815780601f1061175657610100808354040283529160200191611781565b820191906000526020600020905b81548152906001019060200180831161176457829003601f168201915b5050505050815260200160048201805461179a90613863565b80601f01602080910402602001604051908101604052809291908181526020018280546117c690613863565b80156118135780601f106117e857610100808354040283529160200191611813565b820191906000526020600020905b8154815290600101906020018083116117f657829003601f168201915b50505091835250506005820154602082015260068201546040820152600780830154606083015260088301546080830152600983015460a0830152600a83015460c0830152600b83015460e09092019160ff169081111561187657611876613528565b600781111561188757611887613528565b8152600b820154610100900460ff1615156020820152600c820180546040909201916118b290613863565b80601f01602080910402602001604051908101604052809291908181526020018280546118de90613863565b801561192b5780601f106119005761010080835404028352916020019161192b565b820191906000526020600020905b81548152906001019060200180831161190e57829003601f168201915b50505050508152602001600d8201805461194490613863565b80601f016020809104026020016040519081016040528092919081815260200182805461197090613863565b80156119bd5780601f10611992576101008083540402835291602001916119bd565b820191906000526020600020905b8154815290600101906020018083116119a057829003601f168201915b5050509183525050600e919091015460ff80821660208401526101008204811615156040840152620100009091041615156060909101529392505050565b611a03613143565b611a0d6000613175565b565b606081600d5481108015611a3957506000818152600c60205260409020600b0154610100900460ff165b611a555760405162461bcd60e51b81526004016107bf906137f0565b6000838152600a602090815260409182902080548351818402810184019094528084529091830182828015611ab357602002820191906000526020600020905b81546001600160a01b03168152600190910190602001808311611a95575b5050505050915050919050565b611ac8613143565b6064811115611b2e5760405162461bcd60e51b815260206004820152602c60248201527f50656e616c74792070657263656e74616765206d75737420626520626574776560448201526b0656e203020616e64203130360a41b60648201526084016107bf565b600755565b81600d5481108015611b5b57506000818152600c60205260409020600b0154610100900460ff165b611b775760405162461bcd60e51b81526004016107bf906137f0565b6000838152600c602052604090206001015483906001600160a01b03163314611bb25760405162461bcd60e51b81526004016107bf90613ac0565b60036000858152600c60205260409020600b015460ff166007811115611bda57611bda613528565b14611bf75760405162461bcd60e51b81526004016107bf90613b14565b6000848152600c6020819052604090912001611c1384826138e6565b50336001600160a01b0316847f68ec38dff3a017d2dcdaac12f12412d7959a4ebaf2dd00ec6f0e98e47b8983cd85604051611c4e91906137dd565b60405180910390a350505050565b611c64613143565b600455565b6000546001600160a01b031690565b60606000600d546001600160401b03811115611c9657611c9661330a565b604051908082528060200260200182016040528015611ccf57816020015b611cbc6131e3565b815260200190600190039081611cb45790505b50905060005b600d54811015611436576000818152600c602090815260409182902082516102408101845281546001600160a01b039081168252600183015416928101929092526002810180549293919291840191611d2d90613863565b80601f0160208091040260200160405190810160405280929190818152602001828054611d5990613863565b8015611da65780601f10611d7b57610100808354040283529160200191611da6565b820191906000526020600020905b815481529060010190602001808311611d8957829003601f168201915b50505050508152602001600382018054611dbf90613863565b80601f0160208091040260200160405190810160405280929190818152602001828054611deb90613863565b8015611e385780601f10611e0d57610100808354040283529160200191611e38565b820191906000526020600020905b815481529060010190602001808311611e1b57829003601f168201915b50505050508152602001600482018054611e5190613863565b80601f0160208091040260200160405190810160405280929190818152602001828054611e7d90613863565b8015611eca5780601f10611e9f57610100808354040283529160200191611eca565b820191906000526020600020905b815481529060010190602001808311611ead57829003601f168201915b50505091835250506005820154602082015260068201546040820152600780830154606083015260088301546080830152600983015460a0830152600a83015460c0830152600b83015460e09092019160ff1690811115611f2d57611f2d613528565b6007811115611f3e57611f3e613528565b8152600b820154610100900460ff1615156020820152600c82018054604090920191611f6990613863565b80601f0160208091040260200160405190810160405280929190818152602001828054611f9590613863565b8015611fe25780601f10611fb757610100808354040283529160200191611fe2565b820191906000526020600020905b815481529060010190602001808311611fc557829003601f168201915b50505050508152602001600d82018054611ffb90613863565b80601f016020809104026020016040519081016040528092919081815260200182805461202790613863565b80156120745780601f1061204957610100808354040283529160200191612074565b820191906000526020600020905b81548152906001019060200180831161205757829003601f168201915b5050509183525050600e919091015460ff808216602084015261010082048116151560408401526201000090910416151560609091015282518390839081106120bf576120bf613b42565b6020908102919091010152600101611cd5565b81600d54811080156120fa57506000818152600c60205260409020600b0154610100900460ff165b6121165760405162461bcd60e51b81526004016107bf906137f0565b6000838152600c602052604090206001015483906001600160a01b031633146121515760405162461bcd60e51b81526004016107bf90613ac0565b60016000858152600c60205260409020600b015460ff16600781111561217957612179613528565b146121965760405162461bcd60e51b81526004016107bf906139c9565b6000848152600c60208190526040909120016121b284826138e6565b506000848152600c602052604090819020600b01805460ff1916600317905551339085907f68ec38dff3a017d2dcdaac12f12412d7959a4ebaf2dd00ec6f0e98e47b8983cd90611c4e9087906137dd565b80600d548110801561222b57506000818152600c60205260409020600b0154610100900460ff165b6122475760405162461bcd60e51b81526004016107bf906137f0565b6000828152600c602052604090206001015482906001600160a01b03166122ae5760405162461bcd60e51b815260206004820152601b60248201527a119c99595b185b98d95c881b9bdd08185cdcda59db9959081e595d602a1b60448201526064016107bf565b6000838152600c60205260409020546001600160a01b031633146123225760405162461bcd60e51b815260206004820152602560248201527f4f6e6c792074686520636c69656e742063616e20706179206f6e20636f6d706c60448201526432ba34b7b760d91b60648201526084016107bf565b60046000848152600c60205260409020600b015460ff16600781111561234a5761234a613528565b146123925760405162461bcd60e51b8152602060048201526018602482015277129bd8881a5cc81b9bdd0818dbdb5c1b195d1959081e595d60421b60448201526064016107bf565b6000838152600c60205260409020600e0154610100900460ff16156123e85760405162461bcd60e51b815260206004820152600c60248201526b105b1c9958591e481c185a5960a21b60448201526064016107bf565b6000838152600c60205260408120600b8101805460ff19166005908117909155600782015491015461241a9190613a5e565b6000858152600c602052604080822060010154905192935090916001600160a01b039091169083908381818185875af1925050503d806000811461247a576040519150601f19603f3d011682016040523d82523d6000602084013e61247f565b606091505b50509050806124cb5760405162461bcd60e51b81526020600482015260186024820152772330b4b632b2103a37903830bc90333932b2b630b731b2b960411b60448201526064016107bf565b6000858152600c6020526040808220805460069091015491516001600160a01b0390911691908381818185875af1925050503d8060008114612529576040519150601f19603f3d011682016040523d82523d6000602084013e61252e565b606091505b505090508061257d5760405162461bcd60e51b815260206004820152601b60248201527a4661696c656420746f2073656e6420636c69656e74207374616b6560281b60448201526064016107bf565b6000868152600c60209081526040918290206001015482518981529182018690526001600160a01b0316917f0ec5e958e84777cd18a414058f2d04b16c30ce9301fd29fe4c4e78c9291993b691016112ef565b6125d8613143565b6001600160a01b0381161580159061260957506125f3611c69565b6001600160a01b0316816001600160a01b031614155b61267b5760405162461bcd60e51b815260206004820152603f60248201527f496e76616c6964206e6577206f776e65722061646472657373206f72206e657760448201527f206f776e65722069732073616d652061732063757272656e74206f776e65720060648201526084016107bf565b61268481612cfb565b806001600160a01b0316612696611c69565b6001600160a01b03167f8be0079c531659141344cd1fd0a4f28419497f9722a3daafe3b4186f6b6457e060405160405180910390a350565b6001600160a01b03811660009081526008602090815260409182902080548351818402810184019094528084526060939283018282801561136c57602002820191906000526020600020908154815260200190600101908083116113585750505050509050919050565b612740613143565b6000600654116127925760405162461bcd60e51b815260206004820152601c60248201527f4e6f20706c6174666f726d206665657320746f2077697468647261770000000060448201526064016107bf565b60068054600091829055906127a5611c69565b6001600160a01b03168260405160006040518083038185875af1925050503d80600081146127ef576040519150601f19603f3d011682016040523d82523d6000602084013e6127f4565b606091505b50509050806128455760405162461bcd60e51b815260206004820181905260248201527f4661696c656420746f20776974686472617720706c6174666f726d206665657360448201526064016107bf565b7f993ab26b2fdaf57de7e8a413b22f3e9c02bf5cc69221754b6d77adb03e52c57b61286e611c69565b604080516001600160a01b039092168252602082018590520160405180910390a15050565b81600d54811080156128bb57506000818152600c60205260409020600b0154610100900460ff165b6128d75760405162461bcd60e51b81526004016107bf906137f0565b6000838152600c602052604090205483906001600160a01b0316331461290f5760405162461bcd60e51b81526004016107bf9061381c565b60036000858152600c60205260409020600b015460ff16600781111561293757612937613528565b146129545760405162461bcd60e51b81526004016107bf90613b14565b6000848152600c6020526040902060040161296f84826138e6565b506000848152600c6020908152604091829020600b01805460ff19166004179055905185815233917f16a7286196330eaff0c7db2ec34ead9c6d2d023b356b62ee7ea644c842a84b679101610c18565b6060600c6000838152602001908152602001600020600c0180546129e290613863565b80601f0160208091040260200160405190810160405280929190818152602001828054612a0e90613863565b801561136c5780601f10612a305761010080835404028352916020019161136c565b820191906000526020600020905b815481529060010190602001808311612a3e5750939695505050505050565b612a65613143565b620186a08111612ace5760405162461bcd60e51b815260206004820152602e60248201527f4d696e696d756d20627564676574206d7573742062652067726561746572207460448201526d68616e203130303030302077656960901b60648201526084016107bf565b600555565b80600d5481108015612afb57506000818152600c60205260409020600b0154610100900460ff165b612b175760405162461bcd60e51b81526004016107bf906137f0565b6000828152600c60205260408120600b015460ff166007811115612b3d57612b3d613528565b14612b8a5760405162461bcd60e51b815260206004820181905260248201527f4a6f62206973206e6f74206f70656e20666f72206170706c69636174696f6e7360448201526064016107bf565b6000828152600c60205260409020546001600160a01b03163303612bfe5760405162461bcd60e51b815260206004820152602560248201527f436c69656e742063616e6e6f74206170706c7920666f72207468656972206f7760448201526437103537b160d91b60648201526084016107bf565b6000828152600b6020908152604080832033845290915290205460ff1615612c7c5760405162461bcd60e51b815260206004820152602b60248201527f467265656c616e6365722068617320616c7265616479206170706c696564206660448201526a37b9103a3434b9903537b160a91b60648201526084016107bf565b6000828152600b6020908152604080832033808552908352818420805460ff19166001908117909155868552600a845282852080549182018155855292842090920180546001600160a01b0319168317905551909184917fcee2f2595979bd753f67e8bc2d03019676acd9fa0dd7c4d08f92d771b3c60e299190a35050565b612d03613143565b6001600160a01b038116612d2d576000604051631e4fbdf760e01b81526004016107bf9190613764565b612d3681613175565b50565b81600d5481108015612d6157506000818152600c60205260409020600b0154610100900460ff165b612d7d5760405162461bcd60e51b81526004016107bf906137f0565b6000838152600c602052604090205483906001600160a01b03163314612db55760405162461bcd60e51b81526004016107bf9061381c565b6000848152600c60205260408120600b015460ff166007811115612ddb57612ddb613528565b14612e285760405162461bcd60e51b815260206004820152601e60248201527f4a6f62206973206e6f74206f70656e20666f722061737369676e6d656e74000060448201526064016107bf565b6000848152600c60209081526040808320600180820180546001600160a01b038a166001600160a01b03199091168117909155600b909201805460ff191660021790558185526009845282852080549182018155855293839020909301879055518681527f3738a681a43a0b6a554742a08bae57e0215e8a774217dc2e7de6c9411b6d0ddc9101610c18565b80600d5481108015612edc57506000818152600c60205260409020600b0154610100900460ff165b612ef85760405162461bcd60e51b81526004016107bf906137f0565b612f01826113d9565b612f4b5760405162461bcd60e51b815260206004820152601b60248201527a111958591b1a5b99481a185cc81b9bdd081c185cdcd959081e595d602a1b60448201526064016107bf565b6000612f55611c69565b6000848152600c6020526040808220600b8101805460ff1916600617905560080154905192935090916001600160a01b03841691908381818185875af1925050503d8060008114612fc2576040519150601f19603f3d011682016040523d82523d6000602084013e612fc7565b606091505b50509050806130245760405162461bcd60e51b8152602060048201526024808201527f4661696c656420746f2073656e6420706c6174666f726d2066656520746f206f6044820152633bb732b960e11b60648201526084016107bf565b6000848152600c60205260408120805460078201546006909201546001600160a01b039091169161305491613a5e565b604051600081818185875af1925050503d8060008114613090576040519150601f19603f3d011682016040523d82523d6000602084013e613095565b606091505b50509050806131095760405162461bcd60e51b815260206004820152603a60248201527f4661696c656420746f2073656e6420636c69656e74207374616b6520616e6420604482015279199c99595b185b98d95c881cdd185ad9481d1bc818db1a595b9d60321b60648201526084016107bf565b6040518581527f0e7ad169d11493e86262ef84438664565ee40f98b6297db58f57206f5f31673e9060200160405180910390a15050505050565b3361314c611c69565b6001600160a01b031614611a0d573360405163118cdaa760e01b81526004016107bf9190613764565b600080546001600160a01b038381166001600160a01b0319831681178455604051919092169283917f8be0079c531659141344cd1fd0a4f28419497f9722a3daafe3b4186f6b6457e09190a35050565b5080546000825590600052602060002090810190612d369190613290565b60405180610240016040528060006001600160a01b0316815260200160006001600160a01b031681526020016060815260200160608152602001606081526020016000815260200160008152602001600081526020016000815260200160008152602001600081526020016000600781111561326157613261613528565b8152600060208201819052606060408301819052808301526080820181905260a0820181905260c09091015290565b5b808211156132a55760008155600101613291565b5090565b6000602082840312156132bb57600080fd5b5035919050565b80356001600160a01b03811681146132d957600080fd5b919050565b600080604083850312156132f157600080fd5b82359150613301602084016132c2565b90509250929050565b634e487b7160e01b600052604160045260246000fd5b600082601f83011261333157600080fd5b81356001600160401b0381111561334a5761334a61330a565b604051601f8201601f19908116603f011681016001600160401b03811182821017156133785761337861330a565b60405281815283820160200185101561339057600080fd5b816020850160208301376000918101602001919091529392505050565b6000806000606084860312156133c257600080fd5b8335925060208401356001600160401b038111156133df57600080fd5b6133eb86828701613320565b925050604084013560ff8116811461340257600080fd5b809150509250925092565b60008060006060848603121561342257600080fd5b83356001600160401b0381111561343857600080fd5b61344486828701613320565b9350506020840135915060408401356001600160401b0381111561346757600080fd5b61347386828701613320565b9150509250925092565b60006020828403121561348f57600080fd5b613498826132c2565b9392505050565b602080825282518282018190526000918401906040840190835b818110156134d75783518352602093840193909201916001016134b9565b509095945050505050565b6000815180845260005b81811015613508576020818501810151868301820152016134ec565b506000602082860101526020601f19601f83011685010191505092915050565b634e487b7160e01b600052602160045260246000fd5b6008811061355c57634e487b7160e01b600052602160045260246000fd5b9052565b80516001600160a01b031682526000602082015161358960208501826001600160a01b03169052565b50604082015161024060408501526135a56102408501826134e2565b9050606083015184820360608601526135be82826134e2565b915050608083015184820360808601526135d882826134e2565b91505060a083015160a085015260c083015160c085015260e083015160e085015261010083015161010085015261012083015161012085015261014083015161014085015261016083015161363161016086018261353e565b5061018083015161364761018086018215159052565b506101a08301518482036101a086015261366182826134e2565b9150506101c08301518482036101c086015261367d82826134e2565b9150506101e08301516136966101e086018260ff169052565b506102008301516136ac61020086018215159052565b506102208301516136c261022086018215159052565b509392505050565b6020815260006134986020830184613560565b602080825282518282018190526000918401906040840190835b818110156134d75783516001600160a01b03168352602093840193909201916001016136f7565b6000806040838503121561373157600080fd5b8235915060208301356001600160401b0381111561374e57600080fd5b61375a85828601613320565b9150509250929050565b6001600160a01b0391909116815260200190565b6000602082016020835280845180835260408501915060408160051b86010192506020860160005b828110156137d157603f198786030184526137bc858351613560565b945060209384019391909101906001016137a0565b50929695505050505050565b60208152600061349860208301846134e2565b602080825260129082015271129bd888191bd95cc81b9bdd08195e1a5cdd60721b604082015260600190565b60208082526027908201527f4f6e6c792074686520636c69656e742063616e20706572666f726d20746869736040820152661030b1ba34b7b760c91b606082015260800190565b600181811c9082168061387757607f821691505b60208210810361143657634e487b7160e01b600052602260045260246000fd5b601f8211156138e157806000526020600020601f840160051c810160208510156138be5750805b601f840160051c820191505b818110156138de57600081556001016138ca565b50505b505050565b81516001600160401b038111156138ff576138ff61330a565b6139138161390d8454613863565b84613897565b6020601f821160018114613947576000831561392f5750848201515b600019600385901b1c1916600184901b1784556138de565b600084815260208120601f198516915b828110156139775787850151825560209485019460019092019101613957565b50848210156139955786840151600019600387901b60f8161c191681555b50505050600190811b01905550565b6040815260006139b760408301856134e2565b905060ff831660208301529392505050565b602080825260139082015272129bd8881a5cc81b9bdd08185cdcda59db9959606a1b604082015260600190565b634e487b7160e01b600052601160045260246000fd5b8082028115828204841417613a2357613a236139f6565b92915050565b600082613a4657634e487b7160e01b600052601260045260246000fd5b500490565b81810381811115613a2357613a236139f6565b80820180821115613a2357613a236139f6565b600060018201613a8357613a836139f6565b5060010190565b85815260a060208201526000613aa360a08301876134e2565b604083019590955250606081019290925260809091015292915050565b60208082526034908201527f4f6e6c79207468652061737369676e656420667265656c616e6365722063616e604082015273103832b93337b936903a3434b99030b1ba34b7b760611b606082015260800190565b6020808252601490820152734a6f62206973206e6f7420696e2072657669657760601b604082015260600190565b634e487b7160e01b600052603260045260246000fdfea2646970667358221220953240c2e04a4c32db539c4af0751a474b2225894750da7d38f66dce6b9d22ed64736f6c634300081c0033",
  "linkReferences": {},
  "deployedLinkReferences": {}
}