{
  "_format": "hh-sol-artifact-1",
  "contractName": "Marketplace",
  "sourceName": "contracts/Marketplace.sol",
  "abi": [
    {
      "inputs": [
        {
          "internalType": "uint256",
          "name": "_MINIMUM_BUDGET",
          "type": "uint256"
        },
        {
          "internalType": "uint256",
          "name": "_client_stake_per",
          "type": "uint256"
        },
        {
          "internalType": "uint256",
          "name": "_freelancer_stake_per",
          "type": "uint256"
        },
        {
          "internalType": "uint256",
          "name": "_platform_fee_per",
          "type": "uint256"
        },
        {
          "internalType": "uint256",
          "name": "_penalty_per",
          "type": "uint256"
        }
      ],
      "stateMutability": "nonpayable",
      "type": "constructor"
    },
    {
      "inputs": [
        {
          "internalType": "address",
          "name": "owner",
          "type": "address"
        }
      ],
      "name": "OwnableInvalidOwner",
      "type": "error"
    },
    {
      "inputs": [
        {
          "internalType": "address",
          "name": "account",
          "type": "address"
        }
      ],
      "name": "OwnableUnauthorizedAccount",
      "type": "error"
    },
    {
      "inputs": [],
      "name": "ReentrancyGuardReentrantCall",
      "type": "error"
    },
    {
      "anonymous": false,
      "inputs": [
        {
          "indexed": false,
          "internalType": "uint256",
          "name": "jobId",
          "type": "uint256"
        },
        {
          "indexed": true,
          "internalType": "address",
          "name": "freelancer",
          "type": "address"
        },
        {
          "indexed": false,
          "internalType": "uint256",
          "name": "amount",
          "type": "uint256"
        }
      ],
      "name": "AmountPaidOnCompletion",
      "type": "event"
    },
    {
      "anonymous": false,
      "inputs": [
        {
          "indexed": true,
          "internalType": "uint256",
          "name": "jobId",
          "type": "uint256"
        },
        {
          "indexed": true,
          "internalType": "address",
          "name": "freelancer",
          "type": "address"
        }
      ],
      "name": "AppliedForJob",
      "type": "event"
    },
    {
      "anonymous": false,
      "inputs": [
        {
          "indexed": true,
          "internalType": "uint256",
          "name": "jobId",
          "type": "uint256"
        },
        {
          "indexed": false,
          "internalType": "string",
          "name": "public_review",
          "type": "string"
        },
        {
          "indexed": false,
          "internalType": "uint8",
          "name": "rating",
          "type": "uint8"
        }
      ],
      "name": "FreelancerReviewed",
      "type": "event"
    },
    {
      "anonymous": false,
      "inputs": [
        {
          "indexed": false,
          "internalType": "address",
          "name": "owner",
          "type": "address"
        },
        {
          "indexed": false,
          "internalType": "uint256",
          "name": "amount",
          "type": "uint256"
        }
      ],
      "name": "FundsWithdrawnByOwner",
      "type": "event"
    },
    {
      "anonymous": false,
      "inputs": [
        {
          "indexed": false,
          "internalType": "uint256",
          "name": "jobId",
          "type": "uint256"
        },
        {
          "indexed": true,
          "internalType": "address",
          "name": "freelancer",
          "type": "address"
        }
      ],
      "name": "JobAccepted",
      "type": "event"
    },
    {
      "anonymous": false,
      "inputs": [
        {
          "indexed": false,
          "internalType": "uint256",
          "name": "jobId",
          "type": "uint256"
        },
        {
          "indexed": true,
          "internalType": "address",
          "name": "freelancer",
          "type": "address"
        }
      ],
      "name": "JobAssigned",
      "type": "event"
    },
    {
      "anonymous": false,
      "inputs": [
        {
          "indexed": false,
          "internalType": "uint256",
          "name": "jobId",
          "type": "uint256"
        },
        {
          "indexed": true,
          "internalType": "address",
          "name": "freelancer",
          "type": "address"
        }
      ],
      "name": "JobCompleted",
      "type": "event"
    },
    {
      "anonymous": false,
      "inputs": [
        {
          "indexed": false,
          "internalType": "uint256",
          "name": "jobId",
          "type": "uint256"
        },
        {
          "indexed": true,
          "internalType": "address",
          "name": "client",
          "type": "address"
        },
        {
          "indexed": false,
          "internalType": "string",
          "name": "description",
          "type": "string"
        },
        {
          "indexed": false,
          "internalType": "uint256",
          "name": "budget",
          "type": "uint256"
        },
        {
          "indexed": false,
          "internalType": "uint256",
          "name": "createdAt",
          "type": "uint256"
        },
        {
          "indexed": false,
          "internalType": "uint256",
          "name": "deadline",
          "type": "uint256"
        }
      ],
      "name": "JobCreated",
      "type": "event"
    },
    {
      "anonymous": false,
      "inputs": [
        {
          "indexed": false,
          "internalType": "uint256",
          "name": "jobId",
          "type": "uint256"
        },
        {
          "indexed": true,
          "internalType": "address",
          "name": "client",
          "type": "address"
        }
      ],
      "name": "JobDeleted",
      "type": "event"
    },
    {
      "anonymous": false,
      "inputs": [
        {
          "indexed": false,
          "internalType": "uint256",
          "name": "jobId",
          "type": "uint256"
        }
      ],
      "name": "JobNotCompleted",
      "type": "event"
    },
    {
      "anonymous": false,
      "inputs": [
        {
          "indexed": true,
          "internalType": "uint256",
          "name": "jobId",
          "type": "uint256"
        },
        {
          "indexed": true,
          "internalType": "address",
          "name": "client",
          "type": "address"
        },
        {
          "indexed": true,
          "internalType": "address",
          "name": "freelancer",
          "type": "address"
        },
        {
          "indexed": false,
          "internalType": "string",
          "name": "result",
          "type": "string"
        }
      ],
      "name": "JobReviewed",
      "type": "event"
    },
    {
      "anonymous": false,
      "inputs": [
        {
          "indexed": false,
          "internalType": "uint256",
          "name": "jobId",
          "type": "uint256"
        },
        {
          "indexed": true,
          "internalType": "address",
          "name": "client",
          "type": "address"
        }
      ],
      "name": "JobRevoked",
      "type": "event"
    },
    {
      "anonymous": false,
      "inputs": [
        {
          "indexed": true,
          "internalType": "address",
          "name": "previousOwner",
          "type": "address"
        },
        {
          "indexed": true,
          "internalType": "address",
          "name": "newOwner",
          "type": "address"
        }
      ],
      "name": "OwnershipTransferred",
      "type": "event"
    },
    {
      "inputs": [],
      "name": "MINIMUM_BUDGET",
      "outputs": [
        {
          "internalType": "uint256",
          "name": "",
          "type": "uint256"
        }
      ],
      "stateMutability": "view",
      "type": "function"
    },
    {
      "inputs": [
        {
          "internalType": "uint256",
          "name": "jobId",
          "type": "uint256"
        }
      ],
      "name": "acceptJob",
      "outputs": [],
      "stateMutability": "payable",
      "type": "function"
    },
    {
      "inputs": [
        {
          "internalType": "uint256",
          "name": "jobId",
          "type": "uint256"
        }
      ],
      "name": "applyForJob",
      "outputs": [],
      "stateMutability": "nonpayable",
      "type": "function"
    },
    {
      "inputs": [
        {
          "internalType": "uint256",
          "name": "jobId",
          "type": "uint256"
        },
        {
          "internalType": "address",
          "name": "freelancer",
          "type": "address"
        }
      ],
      "name": "assignJob",
      "outputs": [],
      "stateMutability": "nonpayable",
      "type": "function"
    },
    {
      "inputs": [
        {
          "internalType": "uint256",
          "name": "jobId",
          "type": "uint256"
        }
      ],
      "name": "cancelJob",
      "outputs": [],
      "stateMutability": "nonpayable",
      "type": "function"
    },
    {
      "inputs": [],
      "name": "cancelJobPenaltyPer",
      "outputs": [
        {
          "internalType": "uint256",
          "name": "",
          "type": "uint256"
        }
      ],
      "stateMutability": "view",
      "type": "function"
    },
    {
      "inputs": [
        {
          "internalType": "address",
          "name": "newOwner",
          "type": "address"
        }
      ],
      "name": "changeOwner",
      "outputs": [],
      "stateMutability": "nonpayable",
      "type": "function"
    },
    {
      "inputs": [
        {
          "internalType": "uint256",
          "name": "jobId",
          "type": "uint256"
        }
      ],
      "name": "checkDeadlinePassed",
      "outputs": [
        {
          "internalType": "bool",
          "name": "",
          "type": "bool"
        }
      ],
      "stateMutability": "view",
      "type": "function"
    },
    {
      "inputs": [],
      "name": "client_stake_per",
      "outputs": [
        {
          "internalType": "uint256",
          "name": "",
          "type": "uint256"
        }
      ],
      "stateMutability": "view",
      "type": "function"
    },
    {
      "inputs": [
        {
          "internalType": "uint256",
          "name": "jobId",
          "type": "uint256"
        },
        {
          "internalType": "string",
          "name": "_reply_on_completion",
          "type": "string"
        }
      ],
      "name": "completeJob",
      "outputs": [],
      "stateMutability": "nonpayable",
      "type": "function"
    },
    {
      "inputs": [
        {
          "internalType": "string",
          "name": "_title",
          "type": "string"
        },
        {
          "internalType": "uint256",
          "name": "_duration",
          "type": "uint256"
        },
        {
          "internalType": "string",
          "name": "_description",
          "type": "string"
        }
      ],
      "name": "createJob",
      "outputs": [
        {
          "internalType": "uint256",
          "name": "",
          "type": "uint256"
        }
      ],
      "stateMutability": "payable",
      "type": "function"
    },
    {
      "inputs": [
        {
          "internalType": "uint256",
          "name": "jobId",
          "type": "uint256"
        }
      ],
      "name": "deadlinePassed",
      "outputs": [],
      "stateMutability": "nonpayable",
      "type": "function"
    },
    {
      "inputs": [],
      "name": "freelancer_stake_per",
      "outputs": [
        {
          "internalType": "uint256",
          "name": "",
          "type": "uint256"
        }
      ],
      "stateMutability": "view",
      "type": "function"
    },
    {
      "inputs": [],
      "name": "getAllJobs",
      "outputs": [
        {
          "components": [
            {
              "internalType": "address",
              "name": "client",
              "type": "address"
            },
            {
              "internalType": "address",
              "name": "freelancer",
              "type": "address"
            },
            {
              "internalType": "string",
              "name": "title",
              "type": "string"
            },
            {
              "internalType": "string",
              "name": "description",
              "type": "string"
            },
            {
              "internalType": "string",
              "name": "on_completion",
              "type": "string"
            },
            {
              "internalType": "uint256",
              "name": "budget",
              "type": "uint256"
            },
            {
              "internalType": "uint256",
              "name": "client_stake",
              "type": "uint256"
            },
            {
              "internalType": "uint256",
              "name": "freelancer_stake",
              "type": "uint256"
            },
            {
              "internalType": "uint256",
              "name": "platform_fee",
              "type": "uint256"
            },
            {
              "internalType": "uint256",
              "name": "createdAt",
              "type": "uint256"
            },
            {
              "internalType": "uint256",
              "name": "deadline",
              "type": "uint256"
            },
            {
              "internalType": "enum Marketplace.JobStatus",
              "name": "status",
              "type": "uint8"
            },
            {
              "internalType": "bool",
              "name": "exists",
              "type": "bool"
            },
            {
              "internalType": "string",
              "name": "public_review",
              "type": "string"
            },
            {
              "internalType": "uint8",
              "name": "rating",
              "type": "uint8"
            },
            {
              "internalType": "bool",
              "name": "isPaid",
              "type": "bool"
            },
            {
              "internalType": "bool",
              "name": "reviewed",
              "type": "bool"
            }
          ],
          "internalType": "struct Marketplace.Job[]",
          "name": "",
          "type": "tuple[]"
        }
      ],
      "stateMutability": "view",
      "type": "function"
    },
    {
      "inputs": [
        {
          "internalType": "address",
          "name": "client",
          "type": "address"
        }
      ],
      "name": "getClientJobs",
      "outputs": [
        {
          "internalType": "uint256[]",
          "name": "",
          "type": "uint256[]"
        }
      ],
      "stateMutability": "view",
      "type": "function"
    },
    {
      "inputs": [],
      "name": "getClientStakePercentage",
      "outputs": [
        {
          "internalType": "uint256",
          "name": "",
          "type": "uint256"
        }
      ],
      "stateMutability": "view",
      "type": "function"
    },
    {
      "inputs": [],
      "name": "getClientsAllPostings",
      "outputs": [
        {
          "internalType": "uint256[]",
          "name": "",
          "type": "uint256[]"
        }
      ],
      "stateMutability": "view",
      "type": "function"
    },
    {
      "inputs": [
        {
          "internalType": "address",
          "name": "freelancer",
          "type": "address"
        }
      ],
      "name": "getFreelancerJobs",
      "outputs": [
        {
          "internalType": "uint256[]",
          "name": "",
          "type": "uint256[]"
        }
      ],
      "stateMutability": "view",
      "type": "function"
    },
    {
      "inputs": [],
      "name": "getFreelancerStakePercentage",
      "outputs": [
        {
          "internalType": "uint256",
          "name": "",
          "type": "uint256"
        }
      ],
      "stateMutability": "view",
      "type": "function"
    },
    {
      "inputs": [
        {
          "internalType": "uint256",
          "name": "jobId",
          "type": "uint256"
        }
      ],
      "name": "getJobApplications",
      "outputs": [
        {
          "internalType": "address[]",
          "name": "",
          "type": "address[]"
        }
      ],
      "stateMutability": "view",
      "type": "function"
    },
    {
      "inputs": [
        {
          "internalType": "uint256",
          "name": "jobId",
          "type": "uint256"
        }
      ],
      "name": "getJobById",
      "outputs": [
        {
          "components": [
            {
              "internalType": "address",
              "name": "client",
              "type": "address"
            },
            {
              "internalType": "address",
              "name": "freelancer",
              "type": "address"
            },
            {
              "internalType": "string",
              "name": "title",
              "type": "string"
            },
            {
              "internalType": "string",
              "name": "description",
              "type": "string"
            },
            {
              "internalType": "string",
              "name": "on_completion",
              "type": "string"
            },
            {
              "internalType": "uint256",
              "name": "budget",
              "type": "uint256"
            },
            {
              "internalType": "uint256",
              "name": "client_stake",
              "type": "uint256"
            },
            {
              "internalType": "uint256",
              "name": "freelancer_stake",
              "type": "uint256"
            },
            {
              "internalType": "uint256",
              "name": "platform_fee",
              "type": "uint256"
            },
            {
              "internalType": "uint256",
              "name": "createdAt",
              "type": "uint256"
            },
            {
              "internalType": "uint256",
              "name": "deadline",
              "type": "uint256"
            },
            {
              "internalType": "enum Marketplace.JobStatus",
              "name": "status",
              "type": "uint8"
            },
            {
              "internalType": "bool",
              "name": "exists",
              "type": "bool"
            },
            {
              "internalType": "string",
              "name": "public_review",
              "type": "string"
            },
            {
              "internalType": "uint8",
              "name": "rating",
              "type": "uint8"
            },
            {
              "internalType": "bool",
              "name": "isPaid",
              "type": "bool"
            },
            {
              "internalType": "bool",
              "name": "reviewed",
              "type": "bool"
            }
          ],
          "internalType": "struct Marketplace.Job",
          "name": "",
          "type": "tuple"
        }
      ],
      "stateMutability": "view",
      "type": "function"
    },
    {
      "inputs": [],
      "name": "getMinimumBudget",
      "outputs": [
        {
          "internalType": "uint256",
          "name": "",
          "type": "uint256"
        }
      ],
      "stateMutability": "view",
      "type": "function"
    },
    {
      "inputs": [],
      "name": "getPlatformFeePercentage",
      "outputs": [
        {
          "internalType": "uint256",
          "name": "",
          "type": "uint256"
        }
      ],
      "stateMutability": "view",
      "type": "function"
    },
    {
      "inputs": [],
      "name": "getTotalPlatformFees",
      "outputs": [
        {
          "internalType": "uint256",
          "name": "",
          "type": "uint256"
        }
      ],
      "stateMutability": "view",
      "type": "function"
    },
    {
      "inputs": [
        {
          "internalType": "uint256",
          "name": "",
          "type": "uint256"
        },
        {
          "internalType": "address",
          "name": "",
          "type": "address"
        }
      ],
      "name": "hasApplied",
      "outputs": [
        {
          "internalType": "bool",
          "name": "",
          "type": "bool"
        }
      ],
      "stateMutability": "view",
      "type": "function"
    },
    {
      "inputs": [
        {
          "internalType": "uint256",
          "name": "jobId",
          "type": "uint256"
        },
        {
          "internalType": "address",
          "name": "freelancer",
          "type": "address"
        }
      ],
      "name": "hasFreelancerApplied",
      "outputs": [
        {
          "internalType": "bool",
          "name": "",
          "type": "bool"
        }
      ],
      "stateMutability": "view",
      "type": "function"
    },
    {
      "inputs": [],
      "name": "jobCounter",
      "outputs": [
        {
          "internalType": "uint256",
          "name": "",
          "type": "uint256"
        }
      ],
      "stateMutability": "view",
      "type": "function"
    },
    {
      "inputs": [],
      "name": "owner",
      "outputs": [
        {
          "internalType": "address",
          "name": "",
          "type": "address"
        }
      ],
      "stateMutability": "view",
      "type": "function"
    },
    {
      "inputs": [
        {
          "internalType": "uint256",
          "name": "jobId",
          "type": "uint256"
        }
      ],
      "name": "payOnCompletion",
      "outputs": [],
      "stateMutability": "nonpayable",
      "type": "function"
    },
    {
      "inputs": [],
      "name": "platform_fee_per",
      "outputs": [
        {
          "internalType": "uint256",
          "name": "",
          "type": "uint256"
        }
      ],
      "stateMutability": "view",
      "type": "function"
    },
    {
      "inputs": [],
      "name": "renounceOwnership",
      "outputs": [],
      "stateMutability": "nonpayable",
      "type": "function"
    },
    {
      "inputs": [
        {
          "internalType": "uint256",
          "name": "jobId",
          "type": "uint256"
        },
        {
          "internalType": "string",
          "name": "_result",
          "type": "string"
        }
      ],
      "name": "requestJobReview",
      "outputs": [],
      "stateMutability": "nonpayable",
      "type": "function"
    },
    {
      "inputs": [
        {
          "internalType": "uint256",
          "name": "jobId",
          "type": "uint256"
        },
        {
          "internalType": "string",
          "name": "_public_review",
          "type": "string"
        },
        {
          "internalType": "uint8",
          "name": "_rating",
          "type": "uint8"
        }
      ],
      "name": "reviewFreelancer",
      "outputs": [],
      "stateMutability": "nonpayable",
      "type": "function"
    },
    {
      "inputs": [
        {
          "internalType": "uint256",
          "name": "jobId",
          "type": "uint256"
        }
      ],
      "name": "revokeJobAssigned",
      "outputs": [],
      "stateMutability": "nonpayable",
      "type": "function"
    },
    {
      "inputs": [
        {
          "internalType": "uint256",
          "name": "_penalty_per",
          "type": "uint256"
        }
      ],
      "name": "setCancelJobPenaltyPercentage",
      "outputs": [],
      "stateMutability": "nonpayable",
      "type": "function"
    },
    {
      "inputs": [
        {
          "internalType": "uint256",
          "name": "_client_stake_per",
          "type": "uint256"
        }
      ],
      "name": "setClientStakePercentage",
      "outputs": [],
      "stateMutability": "nonpayable",
      "type": "function"
    },
    {
      "inputs": [
        {
          "internalType": "uint256",
          "name": "_freelancer_stake_per",
          "type": "uint256"
        }
      ],
      "name": "setFreelancerStakePercentage",
      "outputs": [],
      "stateMutability": "nonpayable",
      "type": "function"
    },
    {
      "inputs": [
        {
          "internalType": "uint256",
          "name": "_minimum_budget",
          "type": "uint256"
        }
      ],
      "name": "setMinimumBudget",
      "outputs": [],
      "stateMutability": "nonpayable",
      "type": "function"
    },
    {
      "inputs": [
        {
          "internalType": "uint256",
          "name": "_platform_fee_per",
          "type": "uint256"
        }
      ],
      "name": "setPlatformFeePercentage",
      "outputs": [],
      "stateMutability": "nonpayable",
      "type": "function"
    },
    {
      "inputs": [],
      "name": "totalPlatformFees",
      "outputs": [
        {
          "internalType": "uint256",
          "name": "",
          "type": "uint256"
        }
      ],
      "stateMutability": "view",
      "type": "function"
    },
    {
      "inputs": [
        {
          "internalType": "address",
          "name": "newOwner",
          "type": "address"
        }
      ],
      "name": "transferOwnership",
      "outputs": [],
      "stateMutability": "nonpayable",
      "type": "function"
    },
    {
      "inputs": [],
      "name": "withdrawPlatformFees",
      "outputs": [],
      "stateMutability": "nonpayable",
      "type": "function"
    }
  ],
  "bytecode": "0x60806040526000600d5534801561001557600080fd5b50604051613939380380613939833981016040819052610034916100d2565b338061005a57604051631e4fbdf760e01b81526000600482015260240160405180910390fd5b61006381610082565b5060018055600293909355600391909155600455600755600555610112565b600080546001600160a01b038381166001600160a01b0319831681178455604051919092169283917f8be0079c531659141344cd1fd0a4f28419497f9722a3daafe3b4186f6b6457e09190a35050565b600080600080600060a086880312156100ea57600080fd5b5050835160208501516040860151606087015160809097015192989197509594509092509050565b613818806101216000396000f3fe6080604052600436106102115760003560e01c8063715018a611610119578063b3f2fd42116100a6578063b3f2fd42146105d3578063cf2646c2146105e8578063d0b7830b14610608578063d190508f1461061d578063d3631fa51461063d578063dc65249f14610653578063e0c94ae514610673578063e5a6da8114610693578063f2fde38b146106a9578063f3a4735a146106c9578063fc03ac83146106e957600080fd5b8063715018a61461047d578063747143b9146104925780637573b7e8146104bf5780637a3a27ea146104df5780638333903e146104f45780638da5cb5b14610514578063965a79fb14610536578063a39bf54414610558578063a53cc8c714610593578063a6f9dae1146105b357600080fd5b806340f70be4116101a257806340f70be41461034e57806350355d761461037b57806350907ef014610391578063536eb1ee146103a6578063585a0699146103c65780635dc9b03f146103dc5780635eeafff1146103f15780635ff837e51461040757806361d280d41461042757806363b2f3c91461043d57806369d7428f1461045057600080fd5b8063010bf3f1146102165780630361f7df1461023857806305f295a51461026d57806315a840e41461028d57806319eb5ae4146102ad5780631dffa3dc146102ce57806327379138146102ee57806331521d5714610303578063360f67d71461031857806337a7449714610338575b600080fd5b34801561022257600080fd5b50610236610231366004612f48565b610709565b005b34801561024457600080fd5b50610258610253366004612f7d565b610716565b60405190151581526020015b60405180910390f35b34801561027957600080fd5b5061023661028836600461304c565b610792565b34801561029957600080fd5b506102366102a8366004612f48565b6109c8565b6102c06102bb3660046130ac565b610bc4565b604051908152602001610264565b3480156102da57600080fd5b506102366102e9366004612f48565b611006565b3480156102fa57600080fd5b506002546102c0565b34801561030f57600080fd5b506006546102c0565b34801561032457600080fd5b50610236610333366004612f48565b61127d565b34801561034457600080fd5b506102c060055481565b34801561035a57600080fd5b5061036e61036936600461311c565b61128a565b604051610264919061313e565b34801561038757600080fd5b506102c0600d5481565b34801561039d57600080fd5b506003546102c0565b3480156103b257600080fd5b506102366103c1366004613181565b6112f6565b3480156103d257600080fd5b506102c060075481565b3480156103e857600080fd5b5061036e611467565b3480156103fd57600080fd5b506102c060025481565b34801561041357600080fd5b50610258610422366004612f48565b6114c8565b34801561043357600080fd5b506102c060045481565b61023661044b366004612f48565b61152b565b34801561045c57600080fd5b5061047061046b366004612f48565b6116cb565b6040516102649190613393565b34801561048957600080fd5b50610236611a58565b34801561049e57600080fd5b506104b26104ad366004612f48565b611a6c565b60405161026491906133a6565b3480156104cb57600080fd5b506102366104da366004612f48565b611b1d565b3480156104eb57600080fd5b506004546102c0565b34801561050057600080fd5b5061023661050f366004612f48565b611b90565b34801561052057600080fd5b50610529611b9d565b60405161026491906133e7565b34801561054257600080fd5b5061054b611bac565b60405161026491906133fb565b34801561056457600080fd5b50610258610573366004612f7d565b600b60209081526000928352604080842090915290825290205460ff1681565b34801561059f57600080fd5b506102366105ae366004612f48565b611f74565b3480156105bf57600080fd5b506102366105ce36600461311c565b612313565b3480156105df57600080fd5b506005546102c0565b3480156105f457600080fd5b5061036e61060336600461311c565b612411565b34801561061457600080fd5b5061023661247b565b34801561062957600080fd5b50610236610638366004613181565b6125d6565b34801561064957600080fd5b506102c060065481565b34801561065f57600080fd5b5061023661066e366004612f48565b612702565b34801561067f57600080fd5b5061023661068e366004612f48565b612778565b34801561069f57600080fd5b506102c060035481565b3480156106b557600080fd5b506102366106c436600461311c565b6129a0565b3480156106d557600080fd5b506102366106e4366004612f7d565b6129de565b3480156106f557600080fd5b50610236610704366004612f48565b612b59565b610711612de8565b600255565b600082600d548110801561074057506000818152600c60205260409020600b0154610100900460ff165b6107655760405162461bcd60e51b815260040161075c90613460565b60405180910390fd5b50506000918252600b602090815260408084206001600160a01b0393909316845291905290205460ff1690565b82600d54811080156107ba57506000818152600c60205260409020600b0154610100900460ff165b6107d65760405162461bcd60e51b815260040161075c90613460565b6000848152600c602052604090205484906001600160a01b0316331461080e5760405162461bcd60e51b815260040161075c9061348c565b60056000868152600c60205260409020600b015460ff1660078111156108365761083661320d565b146108795760405162461bcd60e51b8152602060048201526013602482015272129bd8881a5cc81b9bdd081c185a59081e595d606a1b604482015260640161075c565b6000858152600c60205260409020600d015462010000900460ff16156108df5760405162461bcd60e51b815260206004820152601b60248201527a119c99595b185b98d95c88185b1c9958591e481c995d9a595dd959602a1b604482015260640161075c565b60018360ff16101580156108f7575060058360ff1611155b6109435760405162461bcd60e51b815260206004820152601e60248201527f526174696e67206d757374206265206265747765656e203120616e6420350000604482015260640161075c565b6000858152600c602081905260409091200161095f8582613556565b506000858152600c602052604090819020600d01805462ff00ff191660ff861617620100001790555185907fbd50b93283427c9f1d5a17d446cc53edc5ebd5ee86fff386f64f9e9ea53adf87906109b99087908790613614565b60405180910390a25050505050565b80600d54811080156109f057506000818152600c60205260409020600b0154610100900460ff165b610a0c5760405162461bcd60e51b815260040161075c90613460565b6000828152600c602052604090205482906001600160a01b03163314610a445760405162461bcd60e51b815260040161075c9061348c565b60016000848152600c60205260409020600b015460ff166007811115610a6c57610a6c61320d565b14610a895760405162461bcd60e51b815260040161075c90613639565b6000838152600c6020526040808220600181015460079091015491516001600160a01b0390911691908381818185875af1925050503d8060008114610aea576040519150601f19603f3d011682016040523d82523d6000602084013e610aef565b606091505b5050905080610b5c5760405162461bcd60e51b815260206004820152603360248201527f4661696c656420746f2073656e6420667265656c616e636572207374616b65206044820152721dda195b881a9bd8881a5cc81c995d9bdad959606a1b606482015260840161075c565b6000848152600c60209081526040918290206001810180546001600160a01b0319169055600b01805460ff19169055905185815233917fa925e76e316a1510d150731f98c591ebc7f002b55649b69e6c4f48c8556c8b1091015b60405180910390a250505050565b6000600554341015610c2f5760405162461bcd60e51b815260206004820152602e60248201527f4d7573742073656e6420736f6d652067726561746572207468616e204d494e4960448201526d4d554d5f4255444745542077656960901b606482015260840161075c565b60003490506000606482600254610c46919061367c565b610c509190613699565b90506000606483600354610c64919061367c565b610c6e9190613699565b90506000606484600454610c82919061367c565b610c8c9190613699565b9050600081610c9b85876136bb565b610ca591906136bb565b90506005548111610cf85760405162461bcd60e51b815260206004820152601d60248201527f46696e616c20627564676574203c206d696e696d756d20627564676574000000604482015260640161075c565b6000604051806102200160405280336001600160a01b0316815260200160006001600160a01b031681526020018b81526020018981526020016040518060200160405280600081525081526020018381526020018681526020018581526020018481526020014281526020018a62015180610d73919061367c565b610d7d90426136ce565b81526020016000815260016020808301829052604080518083018252600080825282860191909152606085018190526080850181905260a0909401849052600d548452600c825292839020845181546001600160a01b03199081166001600160a01b0392831617835592860151938201805490931693169290921790559082015191925082916002820190610e129082613556565b5060608201516003820190610e279082613556565b5060808201516004820190610e3c9082613556565b5060a0820151816005015560c0820151816006015560e082015181600701556101008201518160080155610120820151816009015561014082015181600a015561016082015181600b0160006101000a81548160ff02191690836007811115610ea757610ea761320d565b0217905550610180820151600b820180549115156101000261ff00199092169190911790556101a0820151600c820190610ee19082613556565b506101c0820151600d91820180546101e0850151610200909501511515620100000262ff0000199515156101000261ffff1990921660ff909416939093171793909316179091553360009081526008602090815260408220925483546001810185559383529082209092019190915560068054859290610f629084906136ce565b9091555050600d8054906000610f77836136e1565b9190505550336001600160a01b03167fb17af25cc4b22ec0ce498027c7f736477f0935c738194a6cb16f4f637cb79b086001600d54610fb691906136bb565b8a8942610fc68f6201518061367c565b610fd090426136ce565b604051610fe19594939291906136fa565b60405180910390a26001600d54610ff891906136bb565b9a9950505050505050505050565b80600d548110801561102e57506000818152600c60205260409020600b0154610100900460ff165b61104a5760405162461bcd60e51b815260040161075c90613460565b6000828152600c602052604090205482906001600160a01b031633146110825760405162461bcd60e51b815260040161075c9061348c565b6000838152600c60205260408120600b015460ff1660078111156110a8576110a861320d565b146110f55760405162461bcd60e51b815260206004820181905260248201527f4a6f62206973206e6f74206f70656e20666f722063616e63656c6c6174696f6e604482015260640161075c565b6000838152600c60205260408120600b8101805460ff19166007179055600681015460059091015461112791906136ce565b9050600060648260075461113b919061367c565b6111459190613699565b905061115181836136bb565b9150806006600082825461116591906136ce565b90915550506000858152600c60209081526040808320600b01805461ff0019169055600a909152812061119791612e6a565b6000858152600c60205260408082205490516001600160a01b039091169084908381818185875af1925050503d80600081146111ef576040519150601f19603f3d011682016040523d82523d6000602084013e6111f4565b606091505b505090508061123f5760405162461bcd60e51b815260206004820152601760248201527611985a5b1959081d1bc81c99599d5b990818db1a595b9d604a1b604482015260640161075c565b60405186815233907f89f27608841804f17b8e014428ff9f1b09d1e415313170c8de783b0de71316ba906020015b60405180910390a2505050505050565b611285612de8565b600355565b6001600160a01b0381166000908152600960209081526040918290208054835181840281018401909452808452606093928301828280156112ea57602002820191906000526020600020905b8154815260200190600101908083116112d6575b50505050509050919050565b81600d548110801561131e57506000818152600c60205260409020600b0154610100900460ff165b61133a5760405162461bcd60e51b815260040161075c90613460565b6000838152600c602052604090206001015483906001600160a01b031633146113755760405162461bcd60e51b815260040161075c90613730565b60016000858152600c60205260409020600b015460ff16600781111561139d5761139d61320d565b146113ba5760405162461bcd60e51b815260040161075c90613639565b6000848152600c60205260409020600101546001600160a01b03166113f15760405162461bcd60e51b815260040161075c90613784565b6000848152600c602052604090819020600b8101805460ff191660031790556001810154905491516001600160a01b0391821692919091169086907f20a98c168a45f81a6173b9e09f9be8840e718511196fc05f4928e46c54042f0a906114599088906137b9565b60405180910390a450505050565b336000908152600860209081526040918290208054835181840281018401909452808452606093928301828280156114be57602002820191906000526020600020905b8154815260200190600101908083116114aa575b5050505050905090565b600081600d54811080156114f257506000818152600c60205260409020600b0154610100900460ff165b61150e5760405162461bcd60e51b815260040161075c90613460565b6000838152600c60205260409020600a0154421191505b50919050565b80600d548110801561155357506000818152600c60205260409020600b0154610100900460ff165b61156f5760405162461bcd60e51b815260040161075c90613460565b6000828152600c602052604090206001015482906001600160a01b031633146115aa5760405162461bcd60e51b815260040161075c90613730565b6000838152600c6020526040902060070154341461160a5760405162461bcd60e51b815260206004820181905260248201527f4d7573742073656e642072657175697265642045544820666f72207374616b65604482015260640161075c565b60026000848152600c60205260409020600b015460ff1660078111156116325761163261320d565b146116745760405162461bcd60e51b81526020600482015260126024820152714a6f62206973206e6f742070656e64696e6760701b604482015260640161075c565b6000838152600c6020908152604091829020600b01805460ff19166001179055905184815233917f4426e4a90a9570c8f678a263b11785eaaade8b79d76d18c43d4d8e00062e4f83910160405180910390a2505050565b6116d3612e88565b81600d54811080156116fb57506000818152600c60205260409020600b0154610100900460ff165b6117175760405162461bcd60e51b815260040161075c90613460565b6000838152600c602090815260409182902082516102208101845281546001600160a01b039081168252600183015416928101929092526002810180549293919291840191611765906134d3565b80601f0160208091040260200160405190810160405280929190818152602001828054611791906134d3565b80156117de5780601f106117b3576101008083540402835291602001916117de565b820191906000526020600020905b8154815290600101906020018083116117c157829003601f168201915b505050505081526020016003820180546117f7906134d3565b80601f0160208091040260200160405190810160405280929190818152602001828054611823906134d3565b80156118705780601f1061184557610100808354040283529160200191611870565b820191906000526020600020905b81548152906001019060200180831161185357829003601f168201915b50505050508152602001600482018054611889906134d3565b80601f01602080910402602001604051908101604052809291908181526020018280546118b5906134d3565b80156119025780601f106118d757610100808354040283529160200191611902565b820191906000526020600020905b8154815290600101906020018083116118e557829003601f168201915b50505091835250506005820154602082015260068201546040820152600780830154606083015260088301546080830152600983015460a0830152600a83015460c0830152600b83015460e09092019160ff16908111156119655761196561320d565b60078111156119765761197661320d565b8152600b820154610100900460ff1615156020820152600c820180546040909201916119a1906134d3565b80601f01602080910402602001604051908101604052809291908181526020018280546119cd906134d3565b8015611a1a5780601f106119ef57610100808354040283529160200191611a1a565b820191906000526020600020905b8154815290600101906020018083116119fd57829003601f168201915b5050509183525050600d919091015460ff80821660208401526101008204811615156040840152620100009091041615156060909101529392505050565b611a60612de8565b611a6a6000612e1a565b565b606081600d5481108015611a9657506000818152600c60205260409020600b0154610100900460ff165b611ab25760405162461bcd60e51b815260040161075c90613460565b6000838152600a602090815260409182902080548351818402810184019094528084529091830182828015611b1057602002820191906000526020600020905b81546001600160a01b03168152600190910190602001808311611af2575b5050505050915050919050565b611b25612de8565b6064811115611b8b5760405162461bcd60e51b815260206004820152602c60248201527f50656e616c74792070657263656e74616765206d75737420626520626574776560448201526b0656e203020616e64203130360a41b606482015260840161075c565b600755565b611b98612de8565b600455565b6000546001600160a01b031690565b60606000600d546001600160401b03811115611bca57611bca612fa9565b604051908082528060200260200182016040528015611c0357816020015b611bf0612e88565b815260200190600190039081611be85790505b50905060005b600d54811015611525576000818152600c602090815260409182902082516102208101845281546001600160a01b039081168252600183015416928101929092526002810180549293919291840191611c61906134d3565b80601f0160208091040260200160405190810160405280929190818152602001828054611c8d906134d3565b8015611cda5780601f10611caf57610100808354040283529160200191611cda565b820191906000526020600020905b815481529060010190602001808311611cbd57829003601f168201915b50505050508152602001600382018054611cf3906134d3565b80601f0160208091040260200160405190810160405280929190818152602001828054611d1f906134d3565b8015611d6c5780601f10611d4157610100808354040283529160200191611d6c565b820191906000526020600020905b815481529060010190602001808311611d4f57829003601f168201915b50505050508152602001600482018054611d85906134d3565b80601f0160208091040260200160405190810160405280929190818152602001828054611db1906134d3565b8015611dfe5780601f10611dd357610100808354040283529160200191611dfe565b820191906000526020600020905b815481529060010190602001808311611de157829003601f168201915b50505091835250506005820154602082015260068201546040820152600780830154606083015260088301546080830152600983015460a0830152600a83015460c0830152600b83015460e09092019160ff1690811115611e6157611e6161320d565b6007811115611e7257611e7261320d565b8152600b820154610100900460ff1615156020820152600c82018054604090920191611e9d906134d3565b80601f0160208091040260200160405190810160405280929190818152602001828054611ec9906134d3565b8015611f165780601f10611eeb57610100808354040283529160200191611f16565b820191906000526020600020905b815481529060010190602001808311611ef957829003601f168201915b5050509183525050600d919091015460ff80821660208401526101008204811615156040840152620100009091041615156060909101528251839083908110611f6157611f616137cc565b6020908102919091010152600101611c09565b80600d5481108015611f9c57506000818152600c60205260409020600b0154610100900460ff165b611fb85760405162461bcd60e51b815260040161075c90613460565b6000828152600c602052604090206001015482906001600160a01b0316611ff15760405162461bcd60e51b815260040161075c90613784565b6000838152600c60205260409020546001600160a01b031633146120655760405162461bcd60e51b815260206004820152602560248201527f4f6e6c792074686520636c69656e742063616e20706179206f6e20636f6d706c60448201526432ba34b7b760d91b606482015260840161075c565b60046000848152600c60205260409020600b015460ff16600781111561208d5761208d61320d565b146120d55760405162461bcd60e51b8152602060048201526018602482015277129bd8881a5cc81b9bdd0818dbdb5c1b195d1959081e595d60421b604482015260640161075c565b6000838152600c60205260409020600d0154610100900460ff161561212b5760405162461bcd60e51b815260206004820152600c60248201526b105b1c9958591e481c185a5960a21b604482015260640161075c565b6000838152600c60205260408120600b8101805460ff19166005908117909155600782015491015461215d91906136ce565b6000858152600c602052604080822060010154905192935090916001600160a01b039091169083908381818185875af1925050503d80600081146121bd576040519150601f19603f3d011682016040523d82523d6000602084013e6121c2565b606091505b505090508061220e5760405162461bcd60e51b81526020600482015260186024820152772330b4b632b2103a37903830bc90333932b2b630b731b2b960411b604482015260640161075c565b6000858152600c6020526040808220805460069091015491516001600160a01b0390911691908381818185875af1925050503d806000811461226c576040519150601f19603f3d011682016040523d82523d6000602084013e612271565b606091505b50509050806122c05760405162461bcd60e51b815260206004820152601b60248201527a4661696c656420746f2073656e6420636c69656e74207374616b6560281b604482015260640161075c565b6000868152600c60209081526040918290206001015482518981529182018690526001600160a01b0316917f0ec5e958e84777cd18a414058f2d04b16c30ce9301fd29fe4c4e78c9291993b6910161126d565b61231b612de8565b6001600160a01b0381161580159061234c5750612336611b9d565b6001600160a01b0316816001600160a01b031614155b6123be5760405162461bcd60e51b815260206004820152603f60248201527f496e76616c6964206e6577206f776e65722061646472657373206f72206e657760448201527f206f776e65722069732073616d652061732063757272656e74206f776e657200606482015260840161075c565b6123c7816129a0565b806001600160a01b03166123d9611b9d565b6001600160a01b03167f8be0079c531659141344cd1fd0a4f28419497f9722a3daafe3b4186f6b6457e060405160405180910390a350565b6001600160a01b0381166000908152600860209081526040918290208054835181840281018401909452808452606093928301828280156112ea57602002820191906000526020600020908154815260200190600101908083116112d65750505050509050919050565b612483612de8565b6000600654116124d55760405162461bcd60e51b815260206004820152601c60248201527f4e6f20706c6174666f726d206665657320746f20776974686472617700000000604482015260640161075c565b60068054600091829055906124e8611b9d565b6001600160a01b03168260405160006040518083038185875af1925050503d8060008114612532576040519150601f19603f3d011682016040523d82523d6000602084013e612537565b606091505b50509050806125885760405162461bcd60e51b815260206004820181905260248201527f4661696c656420746f20776974686472617720706c6174666f726d2066656573604482015260640161075c565b7f993ab26b2fdaf57de7e8a413b22f3e9c02bf5cc69221754b6d77adb03e52c57b6125b1611b9d565b604080516001600160a01b039092168252602082018590520160405180910390a15050565b81600d54811080156125fe57506000818152600c60205260409020600b0154610100900460ff165b61261a5760405162461bcd60e51b815260040161075c90613460565b6000838152600c602052604090205483906001600160a01b031633146126525760405162461bcd60e51b815260040161075c9061348c565b60016000858152600c60205260409020600b015460ff16600781111561267a5761267a61320d565b146126975760405162461bcd60e51b815260040161075c90613639565b6000848152600c602052604090206004016126b28482613556565b506000848152600c6020908152604091829020600b01805460ff19166004179055905185815233917f16a7286196330eaff0c7db2ec34ead9c6d2d023b356b62ee7ea644c842a84b679101610bb6565b61270a612de8565b620186a081116127735760405162461bcd60e51b815260206004820152602e60248201527f4d696e696d756d20627564676574206d7573742062652067726561746572207460448201526d68616e203130303030302077656960901b606482015260840161075c565b600555565b80600d54811080156127a057506000818152600c60205260409020600b0154610100900460ff165b6127bc5760405162461bcd60e51b815260040161075c90613460565b6000828152600c60205260408120600b015460ff1660078111156127e2576127e261320d565b1461282f5760405162461bcd60e51b815260206004820181905260248201527f4a6f62206973206e6f74206f70656e20666f72206170706c69636174696f6e73604482015260640161075c565b6000828152600c60205260409020546001600160a01b031633036128a35760405162461bcd60e51b815260206004820152602560248201527f436c69656e742063616e6e6f74206170706c7920666f72207468656972206f7760448201526437103537b160d91b606482015260840161075c565b6000828152600b6020908152604080832033845290915290205460ff16156129215760405162461bcd60e51b815260206004820152602b60248201527f467265656c616e6365722068617320616c7265616479206170706c696564206660448201526a37b9103a3434b9903537b160a91b606482015260840161075c565b6000828152600b6020908152604080832033808552908352818420805460ff19166001908117909155868552600a845282852080549182018155855292842090920180546001600160a01b0319168317905551909184917fcee2f2595979bd753f67e8bc2d03019676acd9fa0dd7c4d08f92d771b3c60e299190a35050565b6129a8612de8565b6001600160a01b0381166129d2576000604051631e4fbdf760e01b815260040161075c91906133e7565b6129db81612e1a565b50565b81600d5481108015612a0657506000818152600c60205260409020600b0154610100900460ff165b612a225760405162461bcd60e51b815260040161075c90613460565b6000838152600c602052604090205483906001600160a01b03163314612a5a5760405162461bcd60e51b815260040161075c9061348c565b6000848152600c60205260408120600b015460ff166007811115612a8057612a8061320d565b14612acd5760405162461bcd60e51b815260206004820152601e60248201527f4a6f62206973206e6f74206f70656e20666f722061737369676e6d656e740000604482015260640161075c565b6000848152600c60209081526040808320600180820180546001600160a01b038a166001600160a01b03199091168117909155600b909201805460ff191660021790558185526009845282852080549182018155855293839020909301879055518681527f3738a681a43a0b6a554742a08bae57e0215e8a774217dc2e7de6c9411b6d0ddc9101610bb6565b80600d5481108015612b8157506000818152600c60205260409020600b0154610100900460ff165b612b9d5760405162461bcd60e51b815260040161075c90613460565b612ba6826114c8565b612bf05760405162461bcd60e51b815260206004820152601b60248201527a111958591b1a5b99481a185cc81b9bdd081c185cdcd959081e595d602a1b604482015260640161075c565b6000612bfa611b9d565b6000848152600c6020526040808220600b8101805460ff1916600617905560080154905192935090916001600160a01b03841691908381818185875af1925050503d8060008114612c67576040519150601f19603f3d011682016040523d82523d6000602084013e612c6c565b606091505b5050905080612cc95760405162461bcd60e51b8152602060048201526024808201527f4661696c656420746f2073656e6420706c6174666f726d2066656520746f206f6044820152633bb732b960e11b606482015260840161075c565b6000848152600c60205260408120805460078201546006909201546001600160a01b0390911691612cf9916136ce565b604051600081818185875af1925050503d8060008114612d35576040519150601f19603f3d011682016040523d82523d6000602084013e612d3a565b606091505b5050905080612dae5760405162461bcd60e51b815260206004820152603a60248201527f4661696c656420746f2073656e6420636c69656e74207374616b6520616e6420604482015279199c99595b185b98d95c881cdd185ad9481d1bc818db1a595b9d60321b606482015260840161075c565b6040518581527f0e7ad169d11493e86262ef84438664565ee40f98b6297db58f57206f5f31673e9060200160405180910390a15050505050565b33612df1611b9d565b6001600160a01b031614611a6a573360405163118cdaa760e01b815260040161075c91906133e7565b600080546001600160a01b038381166001600160a01b0319831681178455604051919092169283917f8be0079c531659141344cd1fd0a4f28419497f9722a3daafe3b4186f6b6457e09190a35050565b50805460008255906000526020600020908101906129db9190612f2f565b60405180610220016040528060006001600160a01b0316815260200160006001600160a01b0316815260200160608152602001606081526020016060815260200160008152602001600081526020016000815260200160008152602001600081526020016000815260200160006007811115612f0657612f0661320d565b815260006020820181905260606040830181905282018190526080820181905260a09091015290565b5b80821115612f445760008155600101612f30565b5090565b600060208284031215612f5a57600080fd5b5035919050565b80356001600160a01b0381168114612f7857600080fd5b919050565b60008060408385031215612f9057600080fd5b82359150612fa060208401612f61565b90509250929050565b634e487b7160e01b600052604160045260246000fd5b600082601f830112612fd057600080fd5b81356001600160401b03811115612fe957612fe9612fa9565b604051601f8201601f19908116603f011681016001600160401b038111828210171561301757613017612fa9565b60405281815283820160200185101561302f57600080fd5b816020850160208301376000918101602001919091529392505050565b60008060006060848603121561306157600080fd5b8335925060208401356001600160401b0381111561307e57600080fd5b61308a86828701612fbf565b925050604084013560ff811681146130a157600080fd5b809150509250925092565b6000806000606084860312156130c157600080fd5b83356001600160401b038111156130d757600080fd5b6130e386828701612fbf565b9350506020840135915060408401356001600160401b0381111561310657600080fd5b61311286828701612fbf565b9150509250925092565b60006020828403121561312e57600080fd5b61313782612f61565b9392505050565b602080825282518282018190526000918401906040840190835b81811015613176578351835260209384019390920191600101613158565b509095945050505050565b6000806040838503121561319457600080fd5b8235915060208301356001600160401b038111156131b157600080fd5b6131bd85828601612fbf565b9150509250929050565b6000815180845260005b818110156131ed576020818501810151868301820152016131d1565b506000602082860101526020601f19601f83011685010191505092915050565b634e487b7160e01b600052602160045260246000fd5b6008811061324157634e487b7160e01b600052602160045260246000fd5b9052565b80516001600160a01b031682526000602082015161326e60208501826001600160a01b03169052565b506040820151610220604085015261328a6102208501826131c7565b9050606083015184820360608601526132a382826131c7565b915050608083015184820360808601526132bd82826131c7565b91505060a083015160a085015260c083015160c085015260e083015160e0850152610100830151610100850152610120830151610120850152610140830151610140850152610160830151613316610160860182613223565b5061018083015161332c61018086018215159052565b506101a08301518482036101a086015261334682826131c7565b9150506101c083015161335f6101c086018260ff169052565b506101e08301516133756101e086018215159052565b5061020083015161338b61020086018215159052565b509392505050565b6020815260006131376020830184613245565b602080825282518282018190526000918401906040840190835b818110156131765783516001600160a01b03168352602093840193909201916001016133c0565b6001600160a01b0391909116815260200190565b6000602082016020835280845180835260408501915060408160051b86010192506020860160005b8281101561345457603f1987860301845261343f858351613245565b94506020938401939190910190600101613423565b50929695505050505050565b602080825260129082015271129bd888191bd95cc81b9bdd08195e1a5cdd60721b604082015260600190565b60208082526027908201527f4f6e6c792074686520636c69656e742063616e20706572666f726d20746869736040820152661030b1ba34b7b760c91b606082015260800190565b600181811c908216806134e757607f821691505b60208210810361152557634e487b7160e01b600052602260045260246000fd5b601f82111561355157806000526020600020601f840160051c8101602085101561352e5750805b601f840160051c820191505b8181101561354e576000815560010161353a565b50505b505050565b81516001600160401b0381111561356f5761356f612fa9565b6135838161357d84546134d3565b84613507565b6020601f8211600181146135b7576000831561359f5750848201515b600019600385901b1c1916600184901b17845561354e565b600084815260208120601f198516915b828110156135e757878501518255602094850194600190920191016135c7565b50848210156136055786840151600019600387901b60f8161c191681555b50505050600190811b01905550565b60408152600061362760408301856131c7565b905060ff831660208301529392505050565b602080825260139082015272129bd8881a5cc81b9bdd08185cdcda59db9959606a1b604082015260600190565b634e487b7160e01b600052601160045260246000fd5b808202811582820484141761369357613693613666565b92915050565b6000826136b657634e487b7160e01b600052601260045260246000fd5b500490565b8181038181111561369357613693613666565b8082018082111561369357613693613666565b6000600182016136f3576136f3613666565b5060010190565b85815260a06020820152600061371360a08301876131c7565b604083019590955250606081019290925260809091015292915050565b60208082526034908201527f4f6e6c79207468652061737369676e656420667265656c616e6365722063616e604082015273103832b93337b936903a3434b99030b1ba34b7b760611b606082015260800190565b6020808252601b908201527a119c99595b185b98d95c881b9bdd08185cdcda59db9959081e595d602a1b604082015260600190565b60208152600061313760208301846131c7565b634e487b7160e01b600052603260045260246000fdfea26469706673582212201b01e986567c88d3996ad92592e31a17e9c7751eaee698208cebaa8d8c4bbd2d64736f6c634300081c0033",
  "linkReferences": {},
  "deployedLinkReferences": {}
}